:1000000000000220B1340000E7340000E9340000B1
:10001000EB340000ED340000EF340000E534000064
:10002000E5340000E5340000E5340000F134000060
:10003000F3340000E5340000F5340000F73400002C
:1000400051270000C50A0000FD340000FF34000005
:10005000013500000335000005350000690A000085
:10006000093500000B3500000D350000590B00006C
:10007000113500001335000015350000173500005C
:10008000193500001B3500001D3500001F3500002C
:10009000AD0A00002335000025350000273500009B
:1000A000293500002B3500002D3500002F350000CC
:1000B0003135000033350000750B0000B903000036
:1000C000393500003B3500003D3500003F3500006C
:1000D00041350000433500004535000000000000B8
:1000E0000000000000000000000000000000000010
:1000F0000000000000000000000000000000000000
:1001000010B5054C237833B9044B13B10448AFF351
:1001100000800123237010BDAC000020000000000F
:10012000E465000008B5064B1BB106480649AFF36D
:1001300000800648036813B1054B03B1984708BD1A
:1001400000000000E4650000B0000020AC000020CA
:1001500000000000154B002B08BF134B9D46A3F574
:10016000803A00218B460F461348144A121A05F0B4
:10017000A4FE0F4B002B00D098470E4B002B00D055
:1001800098470020002104000D000D48002802D0EF
:100190000C48AFF3008005F061FE2000290004F058
:1001A0006BFE05F047FE00BF0000080000000220C3
:1001B0000000000000000000AC0000205C030020F4
:1001C00000000000000000000A490B4B10B500229F
:1001D00001240C601A6002F0B9FD084B2046196832
:1001E00002F098FD064B04229A61DA6942F004029B
:1001F000DA6110BD280000200C0200200800002059
:10020000000008402DE9F041404B84B0502202210B
:100210008DF801208DF800103D4C18682588C0F33A
:100220000740DF68ADF8035005F00CFC0646380DBA
:1002300005F008FC80466088364FC00805F006FCD3
:100240000146404605F04CFB334905F007FD0146E9
:10025000304605F045FB314905F04CFC05F09AFDB0
:100260002F4E304B397832689B7802EB4102ADF863
:1002700005008DF8022003F0FF0073BBA1882A4A15
:1002800047F265439D42ADF808108DF807001268EB
:1002900013D9264B04221A603B7823B10720694604
:1002A0000A2200F08FFBBDF80300BDF9051004F031
:1002B00079FB306004B0BDE8F08146F690539D4272
:1002C00003D91A4B03221A60E6E746F2BD639D424A
:1002D00013D9164B02221A60DEE700220023002009
:1002E0004FF0804103F022FA0022002304F088FE40
:1002F00005F0D2FA2588C0B2C0E745F616139D4234
:100300000A4B8CBF012200221A60C5E7B081E00FC2
:10031000EC000020DC0000209A99C9C00000C8420F
:100320000C000020D000002004000020CC000020A1
:1003300070B51A4C23787BB1194E33786BB9194DCF
:10034000194E1A4B297832681B68C9B29A420FDBE2
:100350002B78B3B900232B7070BD134B114D186867
:1003600004F0D0FA124A0121002351603370F1E702
:100370000029EDD0306804F0C5FA0D4B01225A6017
:10038000E8E74FF0402002F0CFF9FFF73BFF094AC2
:1003900000230321237033601160DBE7D5000020C8
:1003A000D4000020C80000200C020020040000201F
:1003B0000020004028000020064A074B0121117050
:1003C00098680649022208601A635A6B22F00202FA
:1003D0005A637047100200200010084014020020E9
:1003E00038B52E4B0446DB691BB92D4B5B69002BDE
:1003F00034D02C4D00242C7001F088F92A4B204673
:10040000196801F073F9294B02221A635A6B2849C3
:1004100042F002025A63274A1B680C60136923F0FA
:100420000403136130BF224B01221A602B781D494F
:10043000002B30D11D4B0A7098681F4A02211060B2
:100440001963596B21F002015963106805F0FAFA3B
:100450001A4905F003FC05F0C3FC38BD184BDB6CF2
:10046000002BC6D10028C4D10E4D287001F04EF9E2
:100470000D4B2046196801F039F90C4B02221A6322
:10048000596B0B4A41F0020159631B68012014604B
:1004900002F0E4F9C7E7084AD7E700BF00000840C8
:1004A000002000401002002014000020001008402E
:1004B0000C00024300ED00E01402002000007A442A
:1004C00000E0004008B5024B5B68984708BD00BFDC
:1004D0000001002030B4064B0648DD69064A25F0CD
:1004E000020503240021DD610460116030BC704707
:1004F00000000840300000200001002030B4064B0E
:100500000648DD69064A25F0020503240021DD6165
:100510000460116030BC70470000084030000020CB
:100520000001002030B4064B0648DD69064A25F07C
:10053000020503240021DD610460116030BC7047B6
:1005400000000840300000200001002000F0A4BDA1
:1005500038B50D4C0D4BE2690D490E4822F00202F0
:10056000E261032501221D6008601A6002F0EEFBC3
:10057000002040F6CD4102F0CDFB0223A361E369E8
:1005800043F00203E36138BD000008403000002062
:100590000001002085060000F8B50F4C0F4BE06904
:1005A000597B0F4A20F002000E4F0F4DE0610326E9
:1005B0000120D97216601F602970106002F0C6FB1E
:1005C000002040F6CD4102F0A5FB0223A361E369C0
:1005D00043F00203E361F8BD000008400001002081
:1005E0003000002075070000DD00002010B50D4C24
:1005F0000D4B04F10C00636000F086FD0B4B0C49C1
:1006000001221A60216002F0A1FB00204FF480411A
:1006100002F080FB074B02229A61DA6942F0020283
:10062000DA6110BD00010020D50400003000002078
:100630004D0500000000084010B50D4C0D4B04F1B5
:100640000C00636000F036FD0B4B0C4901221A6070
:10065000216002F07BFB00204FF4804102F05AFB46
:10066000074B02229A61DA6942F00202DA6110BD98
:1006700000010020FD040000300000204D050000B6
:100680000000084010B50E4C0E4B04F10C01002088
:10069000636000F063FD0C4B0C4901221A6021607D
:1006A00002F054FB00204FF4804102F033FB084B72
:1006B00002229A61DA6942F00202DA6110BD00BFDB
:1006C0000001002099050000300000204D050000C9
:1006D0000000084070B50F4C0F4BE669197B0F4ABC
:1006E00026F0020600250320E6611D60106081B13E
:1006F0000B4801211860116002F028FB284640F6E3
:10070000CD4102F007FB0223A361E36943F002033A
:10071000E36170BD000008400001002030000020AF
:100720002507000010B50E4C0E4B04F10C01E07AC9
:10073000636000F03FFD0C4B0C4901221A60216000
:1007400002F004FB00204FF4804102F0E3FA084B72
:1007500002229A61DA6942F00202DA6110BD00BF3A
:100760000001002051050000300000204D05000070
:100770000000084010B50F4C0F4B04F10C024FF273
:10078000B901E07A636000F041FD0C4B0C49012295
:100790001A60216002F0DAFA00204FF4804102F082
:1007A000B9FA084B02229A61DA6942F00202DA6170
:1007B00010BD00BF00010020250500003000002012
:1007C0004D05000000000840192870B51FD02528ED
:1007D00015D00F2800D070BD524DD5F88C40082C94
:1007E00000F09B801CD9202C7BD074D9802C65D044
:1007F000B4F5807F2ED14C4B08221A602AE0494B79
:100800009B7B012B484B63D009221A6070BD454A7F
:1008100092F8A130012B24D031D30B2B25D070BD01
:10082000022C77D0042C45D0012C13D13F4A404BE9
:1008300014602B6002F08AFA40F6CD41002002F0ED
:1008400069FA3C4B02229A61D969374A41F00201A8
:10085000D961146095F89030012B35D0062B33D038
:1008600070BDBDE87040FFF7AFBC92F8A31092F8DE
:10087000A220314B02EB012292B21A8070BD0821F6
:100880000A460320002302F085F82C4B2C49002255
:1008900001240C601A6002F059FA20464FF47A7174
:1008A00002F038FA234B04229A61DA6942F004021A
:1008B000DA6170BD1C4B03221A60CBE71A4B07228A
:1008C0001A60FFF781FCC5E71E4B00221A7070BD4D
:1008D0000A221A6070BD102CBCD1134B05221A607D
:1008E000B8E7124A184B012414602B6002F02EFA6C
:1008F000002040F6CD4102F00DFA0E4B02229A6123
:10090000DE6909490F4A46F002060620DE610860EA
:1009100014709FE7044B1C609CE7034B04221A6091
:1009200098E700BF00010020D80000203000002020
:100930003906000000000840340000200C020020AE
:1009400028000020DC0000202507000010B5114C15
:1009500000214FF48672204605F0AFFA0E4804F1EC
:100960008C0180220D4B00F079FB0D4B0D490122CB
:100970001A60216002F0EAF900204FF4004102F011
:10098000C9F9094B02229A61DA6942F00202DA617E
:1009900010BD00BF00010020C9070000C504000011
:1009A00030000020ED0500000000084008B5034AB3
:1009B000034B032111601B68984708BD30000020DD
:1009C00000010020F0B502F108048BB004F4FC74BF
:1009D00006AFADEB040D8DF818000DF11900541C95
:1009E00005F062FA38461949102205F05DFA184DF3
:1009F000184B4FF6FE7E1878E1B206AB002405F1E5
:100A00000C02154ECDF804E003910293394604928E
:100A1000234600944FF2B9026E6000F02DFC0F4B9C
:100A20000F4901221A60296002F090F920464FF424
:100A3000804102F06FF90B4B02229A61DA69143798
:100A400042F00202DA61BD46F0BD00BFF45E000074
:100A500000010020DD000020D5060000300000204D
:100A60004D050000000008400B4B10B51B7893B1FA
:100A70000A480B4C42690B4B22F00102426122688A
:100A8000416A23F8121000F0A1FD074B01221A70F1
:100A900023681344236010BDD500002000200040CF
:100AA0000C020020EC000020C800002010B5044C0F
:100AB000E069C0B200F08EF80423A36410BD00BF4B
:100AC00000E0004038B5204CD4F81431D4F810219F
:100AD0001340B3F5807F08D0D4F81431D4F8105106
:100AE0001D40B5F5806F29D038BD184B1B6893B1F8
:100AF000174A184B03214FF40070A0651160D96CA0
:100B0000042221F00401D9649A640F4B4FF48072DF
:100B1000C3F81C2138BD0F4B0D4904224FF400755A
:100B20000120E56508609A64DA6C42F00402DA6438
:100B3000054B4FF48072C3F81C2138BDFFF744FB0E
:100B4000C4F81C5138BD00BF00600040A00C0C422E
:100B50003C00002000E00040044A4FF40071044BC8
:100B6000C2F81C11186804F0B7B800BF006000405C
:100B7000E8000020144B70B51A69D9690A40022AAE
:100B800019D01A69D9691140042900D070BDDA69F9
:100B900001240E4E22F004020D4DDA61032099610A
:100BA00022460821002334702C7001F0F3FEBDE8CA
:100BB0007040FFF7BDBBD969BDE8704021F002016C
:100BC000D9619A61FFF7F2BE00000840D50000200D
:100BD000D400002070B53C4C054604F0F5F963796B
:100BE0003BB922797E2A38D02571BDE8704004F0E7
:100BF000EDB97E2D0ED122894FF2B8039A4250D022
:100C00000023A372A371002363712571BDE87040B6
:100C100004F0DCB97D2D40D0A379002B3BD000231C
:100C2000A37185F020002189284B80EA0106A27A71
:100C3000F6B233F81660531C86EA1121DBB2224467
:100C40002181A372D0727F2BCEDD0023A37263714A
:100C50002571BDE8704004F0B9B97E2DC4D00122E1
:100C60004FF6FF717D2DA3726271218127D0A27989
:100C70003AB3A37185F0200282F47F4383F0FF032F
:100C80001249DBB231F81310012381F0FF01E27247
:100C90002181A372A8E72846C5E70123A371A37A9F
:100CA000D1E7A17A00260239C9B2A172A671002942
:100CB000A9D0204650F80B3B9847A672A3E7A27133
:100CC00092E72A46D8E700BF18020020045F000020
:100CD00038B5064C054600212046902205F0EDF877
:100CE00025600348BDE8384004F072B918020020BE
:100CF000D50B0000034B4FF6FF727E20A3F88C202B
:100D000004F06CB918020020104B10B5B3F88C2019
:100D100004460F495040C0B231F81000A4F17D01E3
:100D2000C9B280EA12220129A3F88C2004D92046F6
:100D3000BDE8104004F052B97D2084F0200404F096
:100D40004DF92046BDE8104004F048B918020020D3
:100D5000045F0000F8B5204C204EB4F88C30DF431F
:100D6000BFB2FDB285EA0302D2B236F81210A5F185
:100D70007D02D2B281EA1323012AA4F88C301ED955
:100D8000284604F02BF9B4F88C303D0A85EA0302BA
:100D9000D2B2EDB236F81210A5F17D02D2B281EADC
:100DA0001323012AA4F88C300FD9284604F016F931
:100DB0007E2004F013F9BDE8F84004F015B97D2059
:100DC00004F00CF985F02005DAE77D2004F006F93F
:100DD00085F02005E9E700BF18020020045F00004D
:100DE000F0B5A0F10D0483B005461646192C1ED8A7
:100DF000DFE804F0351D5B1D1D1D1D1D1D1D1D1D86
:100E0000701D1D1D1D1D1D1D1D1D1D0D941F4B4CF9
:100E100094F894209A420AD331461A46D4F89000A6
:100E200005F042F8D4F88C302846FF21984703B0EB
:100E3000F0BD052BFBD9414C94F894209A42F6D38F
:100E4000D4F890703146384604F0A2F8B81CB11CB2
:100E500004F09EF833793B7173797B71E2E7162BCE
:100E6000E5D9364C94F894209A42E0D3D4F89070A7
:100E70003146384604F096F8311D0822381D05F039
:100E800013F807F10C0006F10C0104F08BF806F1E1
:100E9000100107F11000052205F006F807F1160011
:100EA00006F1150104F074F8BCE7082BBFD9234CF8
:100EB00094F894209A42BAD3D4F8907031463846C8
:100EC00004F070F8337907F108003B71711D04F0EC
:100ED00069F8A7E7122BAAD9184C94F894209A42E3
:100EE000A5D3D4F89070314611F8012B384600F89C
:100EF000012B1022019304F0D7FF07F1120006F135
:100F0000110104F045F8019B07F11500A3F113024C
:100F10003A7506F1130104F0C7FF83E7022B86D967
:100F2000064C94F894209A4281D3D4F890703146BC
:100F3000384604F02DF8B378BB7073E7A8020020A0
:100F400010B5094C94F880301BB194F8813083427D
:100F500000D010BDD4F888301970D4F88430984788
:100F6000002384F8803010BDA802002010B5094C81
:100F700094F880301BB194F88130834200D010BDCA
:100F8000D4F888301970D4F884309847002384F856
:100F9000803010BDA802002038B50E4C94F8805067
:100FA0001DB194F88150854200D038BD31B983B16C
:100FB000D4F88830197012785A7002E0D4F888306A
:100FC0001970D4F8843028469847002384F880307C
:100FD00038BD38BDA802002010B5094C94F8803007
:100FE0001BB194F88130834200D010BDD4F8883012
:100FF0001970D4F884309847002384F8803010BDED
:10100000A802002010B5094C94F880301BB194F868
:101010008130834200D010BDD4F888301970D4F8E4
:1010200084309847002384F8803010BDA802002047
:1010300010B5094C94F880301BB194F8813083428C
:1010400000D010BDD4F888301970D4F88430984797
:10105000002384F8803010BDA80200202DE9F04163
:101060000B4C06460D4690461F462046002198220E
:1010700004F023FFC4F88C60C4F8905084F8948086
:10108000C4F884700348BDE8F04100F0AFB900BF78
:10109000A8020020E10D000008B503F095FF044B05
:1010A000002283F88020BDE8084003F08FBF00BF16
:1010B000A802002070B5124C82B0064603F084FFEF
:1010C00094F88010B1B90F4A0625009228460B46C5
:1010D000224684F88150C4F8886000F09DF90546E6
:1010E00020B103F073FF284602B070BD012384F8DD
:1010F0008030F6E703F06AFF012002B070BD00BF48
:10110000A8020020410F000070B5124C82B00646C4
:1011100003F05AFF94F88010B1B90F4A08250092E5
:1011200028460B46224684F88150C4F8886000F0B7
:1011300073F9054620B103F049FF284602B070BD9F
:10114000012384F88030F6E703F040FF012002B06D
:1011500070BD00BFA80200206D0F0000F0B5134C59
:1011600083B00F46064603F02FFF94F88010B9B9FC
:101170000F4A1525009228462246012384F8815003
:10118000C4F88870267000F047F9054620B103F0D6
:101190001DFF284603B0F0BD012384F88030F6E738
:1011A00003F014FF012003B0F0BD00BFA80200202F
:1011B000990F0000F0B5134C83B00F46064603F0BC
:1011C00003FF94F88010B9B90F4A162500922846FB
:1011D0002246012384F88150C4F88870267000F0FC
:1011E0001BF9054620B103F0F1FE284603B0F0BD1F
:1011F000012384F88030F6E703F0E8FE012003B015
:10120000F0BD00BFA8020020D90F00002DE9F04179
:10121000174C82B006468846174603F0D5FE94F870
:101220008050F5B9204600F8016B41461726C4F8F6
:10123000887084F8816003F0A7FE0E4B2946009366
:1012400030462246032300F0E7F8054628B103F0B4
:10125000BDFE284602B0BDE8F081012384F880304D
:10126000F5E703F0B3FE012002B0BDE8F08100BF56
:10127000A8020020051000002DE9F04F274C85B092
:1012800003910746934699469DF83880BDF83CA0E7
:101290009DF8446003F098FE94F880500399002D67
:1012A00035D1129B2046102200F8017B1827C4F884
:1012B000883084F8817004F0F7FD594604F111007C
:1012C00003F062FE514604F1150084F8139084F88F
:1012D000148003F059FE1099324604F1170004F00F
:1012E000E3FD0F4A06F11703294600923846DBB2A8
:1012F000224600F091F8054628B103F067FE284623
:1013000005B0BDE8F08F012384F88030F5E703F0E5
:101310005DFE012005B0BDE8F08F00BFA8020020EF
:101320003110000002292DE9F843044639D98578A7
:10133000077805F00808EB075FFA88F8C5F3400264
:1013400090F8019028D4284EB8F1000F02D173789C
:10135000934228D07270FFF7CDFC3846FFF7D4FCDB
:101360000020FFF7D1FC70781F4E400040F00100D4
:10137000C0B2FFF7C9FC0020FFF7C6FCFFF7EAFC8C
:10138000B9F1000F0DD0B6685EB138462946E21CAF
:101390004B46B047BDE8F883134DC178A878B842F2
:1013A00017D0BDE8F883FFF7A5FC3846FFF7ACFC83
:1013B0004046FFF7A9FC7078400040F00100C0B241
:1013C000FFF7A2FC4046FFF79FFCBDE8F843FFF79C
:1013D000C1BC6E68002EE4D04B46221DB0470023EE
:1013E000AB706B60BDE8F8834003002038B5084C53
:1013F0000546002120460C2204F05FFD0223A56073
:10140000237063700348BDE83840FFF761BC00BF3C
:1014100040030020251300002DE9F0411B4E1D461E
:1014200096F800E0069BBEF1020F07461446B07026
:10143000736026D04FEA4E085FFA88F848EA010840
:10144000FFF758FC3846FFF75FFC2846FFF75CFCC7
:101450004046FFF759FC4DB1013DEDB22544013C3A
:1014600014F8010FFFF750FCAC42F9D1FFF772FC02
:1014700033780020D3F1010338BF00233370BDE877
:10148000F081002333704FF00808D7E740030020B5
:1014900070B50E7905460C4616480EBB00F00EFCE2
:1014A000154B164E0344A6FB0323DE0D03D0013E6D
:1014B000360206F4FE460A236B606378E1782078F2
:1014C000A2781B01090443EA0063134301F4F811F5
:1014D00062790B4333430AB143F008032B6070BDBC
:1014E00000F0ECFB3602034800F0E8FB06F4FE4691
:1014F000E1E700BF408104003F5DC600A5E830A5DC
:1015000002234360F0B4446B8A7824F4FE4424F050
:101510007F04062A54D8DFE802F02B353F495353A5
:101520000400294BDB6803F07F0C0B784D780F79B2
:101530001B0743EA0553CE788D794CEA040443EA4D
:101540000723446343EA06130DB143F08073CC795B
:101550000CB143F004034C790CB143F00203097A57
:1015600009B143F0010343EA0243C360F0BC704792
:10157000154B5E685D6806F4FE4305F07F0C4CEA8F
:10158000030CD2E7104B5D685B68C5F3066CC3F3D0
:10159000064343EA0C2CC8E70B4B9E689D6806F493
:1015A000FE4305F07F0C4CEA030CBEE7064B9D683A
:1015B0009B68C5F3066CC3F3064343EA0C2CB4E7FF
:1015C0004FF0000CB1E700BFB081E00F002230B453
:1015D0000A234FF4F81540F2033440F24771436098
:1015E000C260124B0261056042610462C163426BDA
:1015F0005C6822F4FE42596804F4FE4422F07F0243
:10160000224301F07F010A434263446B59685A68E0
:1016100001F4FE4124F0FE4302F07F0223F4FE03B6
:101620000A4343EA0243436330BC7047B081E00F92
:1016300008B520B10A4B984207D91F2008BD0948B8
:1016400000F03CFB0028F5D108BD074B00F57420E5
:1016500000F23F20A3FB0020800C0138C0B208BD7F
:101660000048E8014081040083DE1B438368017861
:10167000B3FA83F370B4C3F11F0411B1184B012204
:101680001A60184A936BDD0706D4136813F4405FA1
:1016900002D0D36BDB07FCD4827C124B86885A6065
:1016A000C268457846EA421245F0080586782A4322
:1016B000457C42EA8602007C42EA051242EA803218
:1016C00042EA04224FF0FF3018631A6029B106483D
:1016D000034900221B6802600A6070BC704700BFAB
:1016E00000070243001008400C000243064A936BB7
:1016F000D80706D4136813F4405F02D0D36B9B075E
:10170000FCD4014BD960704700100840024B012106
:10171000002219601A6070470C00024308B500F0FF
:101720000F03013B062B7DD8DFE803F03C4C5B7CCC
:101730007C6A0400484BDB6A03F46033B3F5803FF6
:1017400074D0B3F5003F6FD0B3F5004F0CBF082342
:101750000123424A904260D0414A904203D13E4B1D
:101760009B6AC3F38103032B1AD8DFE803F0130F3E
:101770000B0201F0E9FE3B4B3B4A1B681268013348
:10178000D84008BDBDE8084001F0CABFBDE8084028
:1017900001F0BEBF314B98424CD0314B984252D0F1
:1017A000002008BD2C4BDB6A03F47053B3F5805F57
:1017B0003AD0B3F5005F39D0B3F5006F0CBF042306
:1017C0000523C6E7244A936A03F00303022BC0D023
:1017D000032B2DD0012B27D0936ADA030ED50923D2
:1017E000B7E71D4A936A03F00C03082B1ED00C2B9D
:1017F0001ED0042B18D0936ADB02F0D40123A8E793
:10180000154B1B6813F080531BD0144AB3F1805F53
:101810000CBF0823012390429ED10F4B9B6A03F01B
:101820000303A0E7002394E7032392E7022390E752
:1018300006238EE7084B10209B6A33FA00F006D18E
:1018400008BD072385E7044B14209B6AF5E7BDE834
:10185000084001F061BF00BF00800C40020018008A
:1018600003001A0078009043A000904338B5C0F3FD
:101870000313013B0C46062B05D8DFE803F00F04E9
:1018800004212C3E050038BDA94B984200F0DC80B5
:1018900003F50433984200F0C08038BD01F0C4FE67
:1018A000A44B41F67131DA6BD9635B6803F007032F
:1018B000042B40D9A04B984240F26981052045E0B5
:1018C0009E4BB1FA81F49A68C4F11F0422F00F0212
:1018D00014439C6038BD01F0A7FE964B41F6713170
:1018E000DA6BD9635B6803F00703042B40D9924B92
:1018F000984240F25481052045E0914B984200F017
:101900002F8140F2B7808F4B984200F0F9808E4BC8
:10191000984240F0D380894A536DD90740F1BE8088
:10192000864BB4FA84F49A6EC4F11F0422F00302C9
:1019300022439A6638BD012101FA03F313F0130F15
:10194000B8D07D4B984240F242810420794B5968CF
:1019500021F00701014359600AB10022DA63774B95
:10196000013C1A6822F4E03242EA84341C6037E019
:10197000012101FA03F313F0130FB8D06E4B984214
:1019800040F2158104206B4B596821F00701014397
:1019900059600AB10022DA6301F04AFE6B4BB0FBDA
:1019A000F4F0DB6CC3F307434A2B00F09480792BEF
:1019B00000F09180604A482B18BF00229042644D8D
:1019C000644994BF002201225C4B2A600A605A6875
:1019D000B4FA84F4C4F11F0422F00F0214435C60D3
:1019E00001F0B2FD534B41F67131DA6BD9635B689C
:1019F00003F00703042B62D94F4B984240F2DF807B
:101A000005204C4B596821F0070101435960002A19
:101A10003FF439AF0022DA6338BD484A536DD90725
:101A20000BD5464BB4FA84F41A6FC4F11F0422F0AC
:101A3000300242EA04121A6738BD136D5B06F0D516
:101A4000136D5B06F9D4ECE73C4A536DDD070AD50C
:101A50003A4BB4FA84F41A6FC4F11F0422F0030263
:101A600022431A6738BD136D5806F1D5136D580619
:101A7000F9D4EDE7A3F5043398421ED12F4A536DF4
:101A8000DD0713D52D4BB4FA84F49A6EC4F11F040C
:101A900022F0F00242EA04129A6638BD136D5B0729
:101AA0007FF53EAF136D5B07F8D439E7136D580728
:101AB000E8D5136D5807F9D4E4E738BD38BD0121E6
:101AC00001FA03F313F0130F96D01B4B984240F228
:101AD0008680042095E7204B17491D699A69DB69C8
:101AE00005F03F05C3F3031343EA052502F0F002B6
:101AF0001A4B2A43B2F5017F34BF0A461A465DE706
:101B00000E4A536DDD070BD50C4BB4FA84F49A6E74
:101B1000C4F11B0422F4405242EA04329A6638BDF2
:101B2000136D5807F0D5136D5807F9D4ECE700BFD3
:101B30007007140000000C400048E80100800C40D1
:101B4000602612006000240060062800B081E00FCB
:101B500078009043A0009043D0FF0FE000366E0164
:101B6000234A536DD9070BD5214BB4FA84F49A6EEE
:101B7000C4F11F0422F4706242EA04229A6638BD5E
:101B8000136D5B07F0D5136D5B07F9D4ECE7194BC8
:101B9000194903448B4294BF03200220D6E6154B1B
:101BA000154903448B4294BF03200220EBE6114BFE
:101BB000114903448B428CBF00200120E3E60D4B0A
:101BC0000D4903448B4294BF0320022019E7094BBF
:101BD000094903448B428CBF00200120B6E6054B27
:101BE000054903448B428CBF0020012009E700BF58
:101BF00000800C40FFDB0BFFFF23F40000F00F0020
:101C0000013806284ED8DFE800F01424334D4D4249
:101C10000400294BDB6A03F46033B3F5803F43D003
:101C2000B3F5003F42D0B3F5004F0CBF08200120B0
:101C30007047214BDB6A03F47053B3F5805F35D0F6
:101C4000B3F5005F30D0B3F5006F0CBF0420052062
:101C50007047194B986A00F00300022825D003282A
:101C600026D0012822D09B6ADA030ED509207047BE
:101C7000114A936A03F00C03082B15D00C2B17D0D4
:101C8000042B13D0936ADB02F0D4012070470A4B77
:101C90001B6813F080530DD0B3F1805F0CBF082098
:101CA00001207047002070470220704703207047D2
:101CB000062070470720704700800C4000F4781021
:101CC000B0F5A01F08B500F093800ED8B0F5402FF6
:101CD0007ED021D8B0F5003F76D0B0F5802F00F04F
:101CE000B08000287BD0002008BDB0F5001F00F0B8
:101CF0009A8039D8B0F5C01F61D0B0F5D01F72D02E
:101D0000B0F5B01FEFD16448FFF708FD634B1B6FC0
:101D1000C3F30113D84008BDB0F5801F37D0B0F52C
:101D2000901F6ED0B0F5602FDDD15C4B5B6903F482
:101D3000E063B3F5007F00F09E8040F28A80B3F547
:101D4000C06F00F0A480B3F5E06F00F09E80B3F5A3
:101D5000407FC8D1524B534AD86C534BB0F1985F77
:101D600034BF1046184608BDB0F5181F18D0B0F59E
:101D7000201F4FD0B0F5101FB5D14C48FFF7CEFC57
:101D8000464B9B6EC3F301330433D84008BD47482C
:101D9000FFF7C4FC414B9B6EC3F30313D84008BD4F
:101DA0004248FFF7BBFC3D4B9A6EDB6FC2F301323A
:101DB000D04003F007030133B0FBF3F008BD3B480C
:101DC000BDE80840FFF7AABCBDE8084001F0BCBB75
:101DD000324A136813F0805346D0002B83D0BDE8FD
:101DE000084001F025BC2C48BDE80840FFF796BC30
:101DF0002948FFF793FC294B1B6F03F00303D840DE
:101E000008BD2A48FFF78AFC244B9B6EC3F30323CB
:101E1000D84008BD2548FFF781FC204B9B6E03F09E
:101E20000303D84008BD2248FFF7E8FE032817D077
:101E30000828D4D002287FF456AFBDE8084001F04E
:101E40006FBC01F0F5FB154B9B6803F00F03D84006
:101E500008BDF3B1B3F5807F7FF445AF154808BDE9
:101E6000BDE8084001F054BC536903F4E063B3F5E6
:101E7000007F7FF462AF0A4B0F4AD86C0F4BB0F172
:101E8000985F34BF1046184608BD0D4808BD0D4880
:101E900008BD0D4808BD00BF03001A0000800C40BB
:101EA000B081E00F40420F00804F12000200180086
:101EB00007232000C0D8A700C0CF6A0040B5640047
:101EC000406F4001003FAB01809FD50070B5C0F36B
:101ED0000323013B82B00446092B11D8DFE803F04D
:101EE00022192410101D05101020274A1020274DFC
:101EF000C4F304346B6DDB0704D5224492001160F7
:101F000002B070BD2B6D1842F7D02B6D1842F9D17D
:101F1000F3E71F4AC4F30434EFE71E4A0120E6E763
:101F20001D4AF7E71D4AF5E7019101F00DFB1C4B37
:101F30000199DA6CC2F307424A2A0FD0792A0DD0F0
:101F4000184B482A18BF0023174A9842174D94BFD0
:101F5000002301231360164A2B60DBE7154A114D5D
:101F600016699369D26906F03F06C2F3031242EA8A
:101F7000062603F0F003104A3343B3F5017F34BF64
:101F80002B461346E0E700BF0003E41000800C403E
:101F90002002E410C002E410C003E4104000E4108A
:101FA000B081E00F0048E80178009043A000904322
:101FB0000002E410D0FF0FE000366E0138B500F0EB
:101FC0000F04631E062B52D8DFE803F07A626251D9
:101FD000515D5600012202FA03F313F0130F00F0D3
:101FE0009680A84B984240F23C820420A64B5A6847
:101FF00022F0070202435A6009B10022DA63A34BC0
:10200000A3485C62FFF75AFEA24BDB6CC3F30743A5
:102010004A2B00F08881792B00F085819949482B63
:1020200018BF002188429C4A9C4B94BF002001208D
:102030001060186000F06EFC01F086FA924B41F6D9
:102040007131DA6BD9635B6803F00703042B40F24C
:102050005D818C4B984240F2EC8105208A4B596897
:1020600021F00701014359600AB10022DA638A4A6C
:102070008A4B12681B6838BD03294ED0082973D0DB
:1020800002295AD038BD072923D0082966D038BD87
:1020900001390829F6D801A252F821F05F22000088
:1020A00067220000B5220000852000008520000086
:1020B000CF22000085200000852000003D22000086
:1020C00002390329DED8DFE811F00A00B500560016
:1020D0008D006E4B1A6822F080521A60C7E7704A72
:1020E00004244FF4807369490B621368002BFCD001
:1020F00000F010FC01F098FA634B41F67132D96B95
:10210000DA635B6803F00703042B7FF663AF5D4B74
:10211000984240F29681052068E75C4B4021614A75
:1021200019621368002BFCD000F0F4FB574A6023BF
:102130005362D36A9903FCD599E7544B4FF48071ED
:10214000574A19621368002BFCD000F0E3FB4F4A9A
:1021500040235362D36AD803FCD588E74B4B1A68F7
:1021600042F080521A6082E7484A20235362D36AC1
:102170001B04FCD57BE7474BDB6CC3F307434A2BBF
:1021800000F00481792B00F001814748482B18BFEB
:102190000120404BDB6CC3F307434A2B00F0E28085
:1021A000792B00F0DF80374A482B0CBF1346002301
:1021B00083423A4A38492CBF002301230B60136045
:1021C00001F09EFA2F4B02249842304B1A6896BFBA
:1021D00022F0600242F0600242F020021A60334AAC
:1021E000042380E72B4BDB6CC3F307434A2B00F03F
:1021F000F680792B00F0F3802B48482B18BF012084
:10220000244BDB6CC3F307434A2B00F0D480792BBB
:1022100000F0D1801B4A482B18BF002290421E4B71
:102220001E4994BF0022012201241A600A6023463D
:102230001F4A58E71B4A0324402354E74FF48011F8
:102240004FF480330022022C00F082800F4A936A00
:1022500023F4801323F00C030B43936207E7002160
:102260000B460A46EFE7094B4FF480710C4A19629E
:102270001368002BFCD000F04DFB08210023022244
:10228000E1E700BF0048E80100000C4000800C407E
:1022900000430200B081E00F78009043A00090431B
:1022A000A40590439C0590430148E8018C059043A8
:1022B000840590436F4B40216F4A19621368002BCD
:1022C000FCD000F027FB042100230122BBE701F032
:1022D0003BF96A4BDB6CC3F307434A2B00F0948055
:1022E000792B00F09180664D482B18BF0025A8423D
:1022F0006449654B654A94BF0020012001250860B0
:1023000018600C211560002303229CE7012101FACB
:1023100003F313F0130F3FF49CAE594B984240F275
:10232000988004209AE65A4B554A1C699969DB69E2
:1023300004F03F04C3F3031343EA042401F0F00163
:10234000544B2143B1F5017F34BF1146194669E66C
:1023500048481343816A21F4803121F00301194375
:10236000816284E64A4A464B14699169D26904F055
:102370003F04C2F3031242EA042401F0F001454A8B
:102380002143B1F5017F28BF134611E7404B424A74
:1023900018699969DB6900F03F00C3F3031343EA4E
:1023A000002001F0F0013D4B0843B0F5017F34BF40
:1023B00010461846EDE6364B314A1C699969DB69CF
:1023C00004F03F04C3F3031343EA042401F0F001D3
:1023D000304B2143B1F5017F28BF1A461EE72C4B35
:1023E0002D4A18699969DB6900F03F00C3F30313B4
:1023F00043EA002001F0F001284B0843B0F5017FCB
:1024000034BF10461846FBE6214B1D4A1D699969E9
:10241000DB6905F03F05C3F3031343EA052501F02B
:10242000F0011C4B0D43B5F5017F34BF15461D4629
:102430005DE71B4B1B4903448B4294BF03200220E2
:102440000CE6174B174A0344934294BF0320022023
:10245000CCE5134B134903448B428CBF0020012071
:10246000FCE50F4B0F4A034493428CBF0020012030
:10247000BCE500BF00800C409C059043B081E00F9C
:102480000048E80178009043A00090431008904372
:10249000D0FF0FE000366E010148E80101366E0101
:1024A000FFDB0BFFFF23F40038B50446052804D8F2
:1024B000DFE800F0272B3035390438BD684B1D6B41
:1024C000C5F30725674AD26A02F47052B2F5805FFD
:1024D00064D0B2F5005F61D0B2F5006F5ED001F05C
:1024E000A3F8614B41F67132D96BDA635B6803F094
:1024F0000703042B1BD95D4B984240F2A8800520AE
:102500001FE0574BDD6AEDB2DCE7554BDD6AC5F3E2
:102510000725D7E7524BDD6AC5F30745D2E7504B95
:10252000DD6A2D0ECEE74E4B1D6BEDB2CAE70122E0
:1025300002FA03F313F0130FDDD04C4B98426ED91F
:102540000420494B5A6822F0070202435A6009B13D
:102550000022DA63434AD36823F4FF6323F00703BE
:1025600043EA04242543D56000F0EEFF3E4B41F6DC
:102570007131DA6BD9635B6803F00703042B43D92D
:102580003A4B98425BD90520374B596821F0070137
:102590000143596062B10022DA6309E0314AD3682D
:1025A00023F4FF6323F0070343EA04242543D560A3
:1025B00000F0CAFF2A4BDB6CC3F307434A2B0ED053
:1025C000792B0CD02949482B18BF00218842284A72
:1025D000284B94BF002001201060186038BD264BA6
:1025E000224A19699C69DB6901F03F01C3F30313B7
:1025F00043EA012104F0F004204B2143B1F5017FAF
:1026000034BF11461946E1E7012101FA03F313F043
:10261000130FB5D0154B984209D90420B4E7184BD5
:10262000184A034493428CBF0020012089E7144BD1
:10263000144903448B428CBF00200120A4E7104BB7
:10264000104903448B4294BF032002209CE70C4BAB
:102650000C4A0344934294BF0320022071E700BF59
:10266000B081E00F00800C4000000C400048E80101
:1026700078009043A0009043D0FF0FE000366E0139
:10268000FFDB0BFFFF23F400054B9A6D120706D406
:10269000DA6F00F0070022F007021043D867704796
:1026A00000800C4010B404282ED8DFE800F0271B6F
:1026B000031F230016480823042469B1154B1C622C
:1026C0001AB95DF8044B00F025B90368002BF8D166
:1026D0000368002BF9D0F4E70E4A5DF8044B13624F
:1026E00000F018B90C4880234024E6E70B48022389
:1026F0000124E2E70A4820231024DEE709484FF4CA
:1027000000734FF48074D8E75DF8044B704700BF46
:102710008C05904300800C409C05904384059043B9
:1027200094059043A4059043002310B43321102452
:10273000064A8360C36004600361C161926944F228
:102740004773C2625DF8044B03637047B081E00FCA
:102750001C4B1D4A41F20C0112685858996B2DE927
:10276000F0470240194F984602EA010422EA010AA2
:102770004FF00209FCB100250126E30717D506FA40
:1027800005F2D8F808303A6003EB0513DB682846F9
:102790006BB11A7AD3F800C0111C82F0010218BF85
:1027A00001211A72BCF1000F01D05A68E047640899
:1027B00005F10105E1D1B9F1010901D05446D9E78C
:1027C000BDE8F08700200C4000300C4008300C4081
:1027D000204B45F60E01204A10B4D3F88440C3F8CC
:1027E0008410126840F2551102F470501140B0F597
:1027F000805F04F00104196202F0010221D0B0F5FB
:10280000005F16D0B0F5006F0BD012B9114B022249
:102810001A621CB10F4B0022C3F884205DF8044BF0
:1028200070471846C36A0B491B07FBD502234B624E
:10283000EBE71846C36A07499B05FBD504234B62A7
:10284000E3E71846C36A03491B06FBD503234B6223
:10285000DBE700BF00800C40E0000020274B284948
:10286000DA6AF0B40A60D3F884204FF42075D207F6
:1028700048BF002245F60E06C3F884601D6248BFBB
:10288000C3F884201F4A204B156945F004051561E3
:102890001D699A69DB6905F03F05C3F3031343EA39
:1028A000052302F0F0021343B3F5827F0BD3B3F597
:1028B000017F08D0002230BFA2B9C0B90B685B0508
:1028C00018D5F0BC7047114B114C1D6801222C40EB
:1028D000C3F880405F6827F04607C3F8847030BFB4
:1028E000002AEAD0094B1C605F600028E6D0F0BCEB
:1028F000FFF76EBFF0BC00F027BE00BF00800C40A9
:10290000E000002000ED00E0D0FF0FE000E100E07B
:102910009CF1FD00024A034BD26A1A60704700BF67
:1029200000800C40E0000020F0B407299DF8106002
:102930009DF814401AD9A1F108029200072595408C
:102940009040104A176827EA0505284310600125C2
:102950008D400D4A0D480A4492001360C2F8806011
:10296000C0F81C51C2F80041F0BC70478A0007252E
:1029700095409040064A176827EA050528431060ED
:10298000E5E700BF0461004040088310006000409C
:1029900000610040F0B4B2BBC40007291DD88D000F
:1029A0004FF00F0C0CFA05FC02FA05F72518AD00E4
:1029B00005F1804505F5C0456E6826EA0C063E43E4
:1029C0006E6042B98BBB012303FA01F120441D4B19
:1029D000800003445960F0BC704701F18045083D18
:1029E000AD004FF00F0C0CFA05FC02FA05F72518A4
:1029F000AD0005F1804505F5C045AE6826EA0C0638
:102A00003E43AE60DDE701268E40C4003BB1251891
:102A1000AD0005F1804505F5C0452E61BDE72718DD
:102A2000084DBF003D446E60B7E7012303FA01F192
:102A30002044800000F1804000F5C0400161F0BCFE
:102A4000704700BF106000400E4BF0B45A68C46875
:102A5000416822F48302067A22F01F022143477A5A
:102A60000A431D683243068A3A43007825F001057F
:102A700032431D605A6018B11A6842F001021A60B0
:102A8000F0BC704700A00840054BB0F5803F5B6884
:102A9000034A23F4803308BF43F480335360704704
:102AA00000A00840044B9A6819B922EA0000986017
:102AB000704710439860704700A0084007280BD863
:102AC000DFE800F00B121A22293139041F293FDDFB
:102AD000224B0B449B001A6070471F2933DC204BAC
:102AE0000B449B001A6070471F29D4BF1D4B1E4B1F
:102AF0000B449B001A6070471F29D4BF1B4B1C4B13
:102B00000B449B001A6070471F291CDD194B0B44B6
:102B10009B001A6070471F29D4BF174B174B0B44FB
:102B20009B001A6070471F29D4BF154B154B0B44EF
:102B30009B001A6070471F29D4BF134B134B0B44E3
:102B40009B001A607047124B0B449B001A60704741
:102B5000104B0B449B001A60704700BFE005C51086
:102B60000002C5102002C5108002C5104002C51029
:102B7000A002C510C002C5106006C5108005C510B2
:102B80008006C510A005C510A006C510C005C5105B
:102B90006002C510C006C51007280ED8DFE800F097
:102BA0000E161E262E384204234B0A40D3F8D800B6
:102BB00020EA01010A43C3F8D82070471E4B0A409F
:102BC000186C20EA01010A431A6470471A4B0A4044
:102BD000586C20EA01010A435A647047164B0A40B8
:102BE000986C20EA01010A439A647047124B0A402C
:102BF000D86C20EA01010A43DA6470470E4B0A40A0
:102C0000D3F8CC0020EA01010A43C3F8CC20704776
:102C1000094B0A40D3F8D00020EA01010A43C3F867
:102C2000D0207047044B0A40D3F8D40020EA0101B9
:102C30000A43C3F8D420704700A0084007280ED8E4
:102C4000DFE800F00E161E262E384204234B0A4001
:102C5000D3F8C00020EA01010A43C3F8C02070473E
:102C60001E4B0A40186D20EA01010A431A6570479D
:102C70001A4B0A40586D20EA01010A435A65704711
:102C8000164B0A40986D20EA01010A439A65704785
:102C9000124B0A40D86D20EA01010A43DA657047F9
:102CA0000E4B0A40D3F8B40020EA01010A43C3F8EE
:102CB000B4207047094B0A40D3F8B80020EA01015C
:102CC0000A43C3F8B8207047044B0A40D3F8BC004D
:102CD00020EA01010A43C3F8BC20704700A0084065
:102CE000034B5A6822F4E01210435860704700BF4B
:102CF00000A0084090FAA0F0B0FA80F303F18753E7
:102D0000003103F5A0234FEA830318BF01211960A6
:102D1000704700BF28B1012802D1034B19607047EA
:102D20007047024B196070470C00084008000840CB
:102D3000427803780AB143F0020382780AB143F083
:102D40000403014A13607047000008404FF08643B7
:102D50000021012219601A60704700BF0B4B5969AE
:102D60001A6901F00F01C2F3811242EA81028270F6
:102D70001A6902F03F0242709A69DB6902F0F002C0
:102D8000C3F3031313430370704700BFD0FF0FE07A
:102D9000314AF8B50446002340F6AA6741F2050619
:102DA00041F6F9709442E7600D4623606660A360C7
:102DB0006361E364A06463654AD0284AA3659442D2
:102DC00043D0274B9C4240D0AB7C1BB1236843F0DF
:102DD00080432360EB7C1BB12B7D43F01003A36584
:102DE000298A6B7BEA890B43686813436360AF6889
:102DF0002E7B18B3202E26D01CD9402E18D0602E42
:102E000013D1042307FB03F32268810001EB530174
:102E100022F060022260B1FBF3F122680439114B09
:102E200089010B401643266063612B78E360F8BD8F
:102E30000623E7E7002EF8D11023E3E70A48FEF760
:102E40003DFF202ED8D10823DCE70023E365BBE754
:102E50002365A365B8E700BF00C0004000C4004080
:102E600000C80040C0FF1F004081040003695B06EA
:102E7000FCD54163704700BF0368D90707D5836855
:102E80009A0704D48368DB07FCD4012343607047AE
:102E90004A780B780AB143F002038A780AB143F00A
:102EA0000403CA780AB143F008030A790AB143F06F
:102EB00020034A790AB143F040038A790AB143F00A
:102EC0001003CA79097A120342EA01221A4383687D
:102ED000DB07FCD402607047FEE700BF10B5294C49
:102EE000002021460246FFF757FE2146012000221E
:102EF000FFF752FE214602200022FFF74DFE214639
:102F000003200022FFF748FE214604200022FFF79D
:102F100043FE214605200022FFF73EFE2146062003
:102F20000022FFF739FE214607200022FFF734FE7A
:102F300000200246FF21FFF781FE0120FF21002231
:102F4000FFF77CFE0220FF210022FFF777FE03201F
:102F5000FF210022FFF772FE0420FF210022FFF76D
:102F60006DFE0520FF210022FFF768FE0620FF21ED
:102F70000022FFF763FEBDE810400720FF2100227A
:102F8000FFF75CBE00F00FF010B5274C0720274973
:102F90000022FFF701FE214606200022FFF7FCFD7C
:102FA000214605200022FFF7F7FD214604200022DC
:102FB000FFF7F2FD214603200022FFF7EDFD214639
:102FC00002200022FFF7E8FD214601200022FFF742
:102FD000E3FD002002464FF02041FFF7DDFD072012
:102FE00001460022FFF72AFE062007210022FFF7F4
:102FF00025FE052007210022FFF720FE04200721DF
:103000000022FFF71BFE032007210022FFF716FE18
:10301000022007210022FFF711FEBDE81040012029
:1030200007210022FFF70ABE00E00FF000E00F507A
:1030300070B50D4D06460024A6420CDD95F816012C
:1030400095F81A110122FFF739FD0134042C05F11E
:103050000105F1D170BD95F8160195F81A110022FD
:10306000FFF72CFDF1E700BF28610000084A10B50A
:103070001168134621F001011160596E11F001042D
:10308000FBD104482146FEF721FF034BDC6710BD4E
:1030900000A008400036260000800C40064B0A467F
:1030A000034493F8FC0093F801110AB9FFF706BD39
:1030B0000122FFF703BD00BF2861000010B5012108
:1030C00004462248FEF702FF21480321FEF776FF5F
:1030D00040212048FEF7CAFB0120FFF7D5FA1E4821
:1030E0000121FEF7F3FE1D4B0022996A1C489A62EB
:1030F000FFF7AAFC08200121FFF7D4FC10200121D2
:10310000FFF7D0FC80200121FFF7CCFC4FF480704A
:103110000121FFF7C7FC4FF400700121FFF7C2FC4B
:1031200034B9FFF7DBFE0D4A536E002BFCD110BD06
:103130004FF44020FFF7D4FD4FF48030FFF7A4FC9C
:10314000084BDA6F42F00802DA67EAE70043020050
:1031500002001800600024000036260000A008408D
:10316000B063000000800C402DE9F84F42F20E736E
:103170009842064600F3A9805A4B9842B8BF1E46B3
:1031800080F2A880304602F04BFE4FF0010906465F
:10319000554A556E544B002DFBD14FF0010BC3F82F
:1031A00060B0584678212A46FFF748FD0220782172
:1031B0002A46FFF743FD032078212A46FFF73EFD0C
:1031C000042078212A46FFF739FD052078212A4678
:1031D000FFF734FD062078212A46FFF72FFD072050
:1031E00078212A46FFF72AFD404CDFF80881404F3E
:1031F000AA4696FBFBF287FB0231D317C3EBA10370
:1032000003EB8303A2EB4303B9F1000F58D19BB248
:1032100038F8135094F8CB10EB0794F8C4004BD453
:10322000AA0794F8CC1094F8C50041D46B0794F821
:10323000CD1094F8C60037D42A0794F8CE1094F82D
:10324000C7002DD4EB0694F8CF1094F8C80023D40F
:10325000AA0694F8D01094F8C90019D46B0694F813
:10326000D11094F8CA000FD40AF1010A0BEB8B0BB2
:10327000BAF1040F4FEA4B0B04F10E04B9D11A4B0B
:1032800000221A66BDE8F88F0122FFF717FCEBE772
:103290000122FFF713FCE1E70122FFF70FFCD7E75C
:1032A0000122FFF70BFCCDE70122FFF707FCC3E784
:1032B0000122FFF703FCB9E70122FFF7FFFBAFE7AD
:1032C000BAF1030FA3D11023A2E74FF0000942F295
:1032D0000F765DE7002EA8BF4FF00009BFF658AF8C
:1032E00050E700BF19FCFFFF00A008402861000064
:1032F0006766666604610000102803460A4608D81F
:103300000748084950F8230051F823102AB9FFF75D
:10331000D5BB00210846002AF9D00122FFF7CEBB19
:103320006C630000286300002DE9F843804602F03A
:10333000CCFD5C4A0746566E5A4B002EFBD101224B
:103340001A66FFF721FE584CDFF8609134E06A07F7
:10335000217CA07847D42B07617CE0784AD4EA0628
:10336000A17C20794DD4AB06E17C607950D46A060B
:10337000217DA07953D42B06617DE07956D4EA05EE
:10338000A17D207A59D4AB05E17D607A5CD46A05D1
:10339000217EA07A5FD42B05617EE07A62D4EA04B4
:1033A000A17E207B65D4AB04E17E607B68D40136CE
:1033B000072E04F11C046BD0B742CABF18F80630C0
:1033C0000023203B39F81350A17BEA07207864D40E
:1033D000AB07E17B6078BAD50122FFF76FFB6A0784
:1033E000217CA078B7D50122FFF768FB2B07617C11
:1033F000E078B4D50122FFF761FBEA06A17C2079D1
:10340000B1D50122FFF75AFBAB06E17C6079AED55E
:103410000122FFF753FB6A06217DA079ABD501227B
:10342000FFF74CFB2B06617DE079A8D50122FFF761
:1034300045FBEA05A17D207AA5D50122FFF73EFBD9
:10344000AB05E17D607AA2D50122FFF737FB6A0563
:10345000217EA07A9FD50122FFF730FB2B05617EEC
:10346000E07A9CD50122FFF729FBEA04A17E207BAC
:1034700099D50122FFF722FBAB04E17E607B96D554
:1034800001220136FFF71AFB072E04F11C0493D129
:10349000044B00221A66BDE8F8830122FFF70EFBF9
:1034A00096E700BF00A0084028610000C463000048
:1034B000074880470749084A084B9B1A40F3058094
:1034C000043BC858D0503FF7FBAF05480047000009
:1034D0000D370000F065000000000020AC00002067
:1034E00055010000FEE7FEE7FEE7FEE7FEE7FEE728
:1034F000FEE7FEE7FEE7FEE7FEE7FEE7FEE7FEE7A4
:10350000FEE7FEE7FEE7FEE7FEE7FEE7FEE7FEE793
:10351000FEE7FEE7FEE7FEE7FEE7FEE7FEE7FEE783
:10352000FEE7FEE7FEE7FEE7FEE7FEE7FEE7FEE773
:10353000FEE7FEE7FEE7FEE7FEE7FEE7FEE7FEE763
:10354000FEE7FEE7FEE700BF2A4AD36A03F47053A2
:10355000B3F5805F2AD0B3F5005F24D0B3F5006FD8
:1035600011D0D36803F4E063B3F5007F3FD020D9D6
:10357000B3F5806F39D0B3F5A06F34D0B3F5407F89
:1035800025D0002101E01C4B19681A4B1B4A186812
:103590005B68C0F382300130B1FBF0F003F00F0341
:1035A000D84010607047164B1968EEE74FF40041A1
:1035B000EBE773B1B3F5807FE3D1124B124AD96CBC
:1035C000124BB1F1985F34BF11461946DDE710493F
:1035D000DBE70C4B0F4AD96C0F4BB1F1985F34BF4E
:1035E00011461946D1E70D49CFE70D49CDE70D4901
:1035F000CBE700BF00800C401C0000204C030020E3
:1036000018000020B081E00FC0CF6A0040B5640010
:10361000809FD50040420F00804F1200003FAB0159
:10362000406F4001C0D8A70000487047006CDC0222
:10363000274AD36A03F47053B3F5805F24D0B3F5FF
:10364000005F1ED0B3F5006F11D0D36803F4E063C0
:10365000B3F5007F39D01AD9B3F5806F33D0B3F505
:10366000A06F2ED0B3F5407F1FD0002001E0194B92
:103670001868174B1B68C3F382330133B0FBF3F0B8
:103680007047154B1868F4E74FF40040F1E773B149
:10369000B3F5807FE9D1114B114AD86C114BB0F1D1
:1036A000985F34BF10461846E3E70F48E1E70B4B3D
:1036B0000E4AD86C0E4BB0F1985F34BF10461846D6
:1036C000D7E70C48D5E70C48D3E70C48D1E700BF53
:1036D00000800C401C00002018000020B081E00F8A
:1036E000C0CF6A0040B56400809FD50040420F0003
:1036F000804F1200003FAB01406F4001C0D8A700CF
:10370000014B1868704700BF1C000020704700BFC5
:103710004FF40040704700BF4FF47A70704700BF0D
:10372000014B1868704700BF180000202DE9F04FCA
:103730008BB01D4680468946144600F075F9DFF8C7
:10374000ACA206469AF900300F46013304D0204659
:10375000294600F08FFF20B9304639460BB0BDE84E
:10376000F08F4046494600F085FF834600282CD163
:10377000204629460022002302F05CF80028EBD006
:10378000944B9AF90010944E00220120CDE90623B3
:103790004B1CCDF820B0CDE90289CDE904458DE878
:1037A00041000DD002290BD0684600F08BFF0028A5
:1037B00000F09580089B1BB102F036FB089B03606C
:1037C000DDE906010BB0BDE8F08F00220023404682
:1037D000494602F02FF8F8B120462946002200237E
:1037E00002F028F8834600284DD07B489AF9003033
:1037F000CDE904450121002200240025CDE90289FC
:10380000CDE90645019000910892002BCCD0714B78
:103810000022CDE90623D3E73046394600F024FFE5
:103820008346002860D0002200233046394602F04B
:1038300001F8002890D04046494600F015FF0028C6
:103840008AD02046294600F00FFF002884D09AF93C
:1038500000306148CDE90445042100220024002500
:10386000022BCDE90289CDE906450190009108922D
:1038700000F08280684600F025FF00287CD0089B7D
:10388000002B9DD098E72046294600F0EDFE002849
:103890003FF462AF204629460022002301F0D4FF06
:1038A00000283FF459AF4C4A9AF8001001230192C6
:1038B000CDF820B0CDE90289CDE90445009300227E
:1038C000002934D10023CDE90623684600F0FAFE32
:1038D0000028D4D102F0A8FA21230360CFE702F038
:1038E000A3FA2123036065E74046494600F0BCFE89
:1038F000002898D02046294600F0B6FE002892D035
:103900003046394600F0B6FEB8B9334A9AF800603E
:1039100001230890CDE90289CDE904450192009385
:10392000002E2ED100240025CDE90645CDE72B4BF6
:103930000229CDE90623CDD0C7E727499AF90030FF
:10394000032201910092CDF820B0CDE90289CDE9A2
:103950000445404649460022F3B9214F4FF06046E6
:103960000023CDE9066701F06FFF002840D19AF9E6
:103970000030022B7FF47EAF02F056FA2223036060
:103980007DE70020002102460B4601F015FE022EC5
:10399000CDE906019ED098E7124F00260023CDE91D
:1039A000066701F051FF0028E1D000220E4B2046AF
:1039B000294601F0D7FC04460D4600F08BFE224656
:1039C0002B4601F037FF0028D1D1044B0022CDE96E
:1039D0000623CCE70000F03F7C6400000000F0FF0D
:1039E000FFFFEF470000F07F0000E03F20000020D5
:1039F00000220A4B2046294601F0B4FC04460D463D
:103A000000F068FE22462B4601F014FF0028AED1DC
:103A1000034B4FF06042CDE90623A8E70000E03FEA
:103A2000FFFFEFC7000000002DE9F04F23F0004B2F
:103A300091B089460F465BEA0201CDE902231446A4
:103A40001D46804606462ED0634B29F0004A9A4513
:103A500022DC1FD0604B9B451EDC77D0002F78DB2B
:103A60000022049264BB5C4B9B4500F091805B4B51
:103A70009B4565D0B5F1804F00F0F983584B9D42CE
:103A80001ED1002F1CDB4046494611B0BDE8F04F67
:103A900000F026BD0028DDD00AF1404A0AF5801A60
:103AA0005AEA060A04D14D49002011B0BDE8F08F52
:103AB0004C4811B0BDE8F04F00F006BE0021049163
:103AC0004046494600F0CCFDE6B9BAF1000F04D0FB
:103AD000424B27F040429A4214D1002DC0F2088494
:103AE000002FE2DA0AF1404ADDF810B00AF5801A38
:103AF0005BEA0A0B5ED0049A012AD6D101F1004399
:103B00001946D2E7FB0F03F1FF3C049B53EA0C0379
:103B10004ED0354B9B456DDD03F104739B4540F35F
:103B2000EF83324B9A4540F39C83002D40F39C83F6
:103B300027A1D1E9000102460B4601F013FCB4E7CE
:103B4000002DC0F24B8440464946AEE7002C85D09C
:103B5000A2E7274B9B4536DCA3F154739B4540F30A
:103B60008D834FEA2B5340F21342934240F33E843D
:103B7000C3F58663033324FA03F202FA03F3A34284
:103B80007FF46EAF02F00102C2F10202049269E713
:103B90000AF1404303F58013334384D0134B9A4515
:103BA00040F39E83002DC0F25F83DDE902017CE7D4
:103BB0004046494602460B4601F020FA02460B46B3
:103BC00001F0FAFC71E7022304934BE7AFF30080A6
:103BD0009C7500883CE4377E0000F07F0000F03FD9
:103BE0000000E03F386500000000E041FFFFEF3FCC
:103BF000FFFF3F43BAF5801F80F2EE83AA4B0022FD
:103C0000CDF804C001F0AEFBDDF804C08A466FF0C9
:103C100034034FEA2A55A54ACAF3130AA5F2FF3521
:103C20004AF07F541D4492450F9544F4401440F3EC
:103C3000D0839F4B9A4540F3EF83DDF83CA00025ED
:103C40000AF1010ACDF83CA0A4F580142B46994A4C
:103C5000DB000E931344D3E90067214632463B460E
:103C6000CDF804C0CDE90A0101F0C8F9324680461A
:103C700089463B46DDE90A0101F0C2F902460B46DE
:103C800000208D4901F098FCCDE90C01DDE90C2301
:103C90004046494601F066FBCDE90601DDE906AB89
:103CA000611041F0005101F500214B190021CDE9CF
:103CB00008AB0891DDE908AB00225046594614468E
:103CC0001D4601F04FFB02460B464046494601F0B7
:103CD00095F93246804689463B462046294601F002
:103CE0008DF902460B46DDE90A0101F087F902462B
:103CF0000B465046594601F035FB02460B464046FE
:103D0000494601F07BF9DDE90C2301F02BFB064667
:103D10000F46DDE9060102460B4601F023FB024691
:103D20000B4604460D4601F01DFB4FA3D3E90023CB
:103D3000804689462046294601F014FB4CA3D3E96E
:103D4000002301F05DF922462B4601F00BFB4AA34C
:103D5000D3E9002301F054F922462B4601F002FB7F
:103D600047A3D3E9002301F04BF922462B4601F08B
:103D7000F9FA45A3D3E9002301F042F922462B4684
:103D800001F0F0FA42A3D3E9002301F039F9024629
:103D90000B464046494601F0E5FADDE906230446B4
:103DA0000D465046594601F02BF932463B4601F08C
:103DB000D9FA22462B4601F023F95246804689461D
:103DC0005B465046594601F0CDFA00223B4BCDE907
:103DD0000A0101F015F942464B4601F011F9089825
:103DE0000D46044622462B465046594601F0BAFA83
:103DF000224682468B462B463046394601F0B2FABF
:103E0000002206460F46204629462C4B01F0F6F8C4
:103E1000DDE90A2301F0F2F802460B464046494626
:103E200001F0ECF8DDE9062301F09CFA02460B46AE
:103E30003046394601F0E4F88046894642464B4612
:103E40005046594601F0DCF813A3D3E90023089843
:103E50000D46044601F086FA11A3D3E90023CDE90B
:103E60000601204629462BE0EF4E454A287ECA3FF0
:103E700065DBC9934A86CD3F01411DA96074D13FDE
:103E80004D268F515555D53FFFAB6FDBB66DDB3FF0
:103E9000033333333333E33F000000E009C7EE3F21
:103EA000F5015B14E02F3EBE000040438E980300F6
:103EB00079B60B00A06400000000F03F000008404D
:103EC00001F050FA524606460F465B462046294608
:103ED00001F094F802460B464046494601F08EF840
:103EE0009FA3D3E9002301F03DFA02460B4630467A
:103EF000394601F085F8DDF838A0AB4B5344D3E9DF
:103F0000002301F07DF882460F988B4601F0C4F93A
:103F10000E9AA64B04461344D3E900670D46524659
:103F20005B46DDE9060101F06BF832463B4601F0E5
:103F300067F822462B4601F063F8089822462B4684
:103F40008046894601F05AF832463B4601F056F861
:103F5000DDE9062301F052F802460B465046594669
:103F600001F04CF8DDF804C082468B46049900222B
:103F70004B1E53EA0C030CBF8D4B8E4BDDE9020147
:103F8000CDE90823DDE90223CDE9042300230493CE
:103F9000DDE904452B46224601F030F842464B4607
:103FA00001F0E0F9524606460F465B46DDE90201A4
:103FB00001F0D8F902460B463046394601F020F8A8
:103FC00042464B4682468B462046294601F0CAF9B6
:103FD00006460F463B4650465946324601F010F819
:103FE000754B8046994289460D4640F34B8101F15D
:103FF0003F4303F5E003034340F012825AA3D3E9A1
:1040000000235046594600F0FBFF3246CDE902013D
:104010003B464046494600F0F1FF02460B46DDE9CB
:10402000020101F02FFC002840F00882CC464FEA44
:104030002C53A3F2FE334FF4801018412844C0F3F0
:104040000A515E4AA1F2FF3342FA03FEC1F58261D2
:10405000C0F3130420EA0E03033144F4801040FA45
:1040600001F1002D0491BCBF494204910022304669
:10407000394600F0C3FF06460F46324650465946C1
:104080003B4600F0BDFF049A12050292002438A3BB
:10409000D3E9002320460D4601F064F932468046FC
:1040A00089463B462046294600F0A8FF02460B46BB
:1040B0005046594600F0A2FF2FA3D3E9002301F098
:1040C00051F92FA3D3E9002306460F46204629467F
:1040D00001F048F902460B463046394600F090FFA1
:1040E00006460F4632463B464046494600F088FFAA
:1040F00042464B4604460D4600F080FF02460B4602
:104100003046394600F07AFF224682468B462046EA
:104110002B46294601F026F91BA3D3E900230646C6
:104120000F4601F01FF91AA3D3E9002300F066FF40
:1041300032463B4601F016F917A3D3E9002300F0FD
:104140005FFF32463B4601F00DF915A3D3E900238A
:1041500000F054FF32463B4632E000BFAFF3008030
:10416000FD033ADC09C7EE3FFE822B654715973CFD
:1041700000000000432EE63FEF39FAFE422EE63FF4
:10418000396CA80C615C20BED0A4BE726937663E53
:10419000F16BD2C541BDBB3E2CDE25AF6A56113F47
:1041A00093BDBE166CC1663F906400008064000041
:1041B0000000F0BF0000F03FFFFF8F40FFFF0F0047
:1041C00001F0D0F8ACA3D3E9002300F019FF324688
:1041D0003B4601F0C7F802460B462046294600F050
:1041E0000DFF06460F4632463B462046294601F063
:1041F000B9F8002280468946304639464FF0804360
:1042000000F0FCFE02460B464046494601F0D4F958
:10421000524606460F4620465B46294601F0A2F864
:1042200052465B4600F0ECFE02460B4630463946ED
:1042300000F0E4FE22462B4600F0E0FE02460B466C
:1042400000209B4900F0DAFE029C02460C44B4F5C3
:10425000801FC0F237812346DDE9080101F082F8B2
:1042600023E4002DFFF664AC002000211DE440464D
:10427000494642464B4601F075F816E40021049188
:10428000FFF7F0BB8B4B21F0004C9C4540F3BD8009
:1042900001F17D5303F53C1303F55053034340F004
:1042A000DB8032463B46CDF804C000F0A7FE024654
:1042B0000B465046594601F0D1FADDF804C00028FB
:1042C0003FF4B5AEDDE908016DA3D3E9002301F0A9
:1042D00049F86BA3D3E9002301F044F8FFF7E5BBED
:1042E000002DC1DA039B029803F10041FFF7DDBB0B
:1042F00002460B4600206E4901F05EF9FFF7F0BB65
:104300006D4B9A45ADDD6A4B9A453FF70EAC0022E6
:10431000674BCDF804C000F071FE5BA3D3E9002326
:1043200004460D4601F01EF859A3D3E900230646C2
:104330000F462046294601F015F8224682468B4654
:104340002B462046294601F00DF80022804689467A
:1043500020462946594B01F005F802460B464EA16E
:10436000D1E9000100F04AFE22462B4600F0FAFF98
:1043700002460B460020524900F040FE02460B4622
:104380004046494600F0EEFF45A3D3E9002300F084
:10439000E9FF02460B465046594600F02FFE044600
:1043A0000D4622462B463046394600F029FE0020B5
:1043B00032463B468046894600F020FE02460B46C8
:1043C0002046294600F01AFEDDF804C082468B46DE
:1043D000CCE500252B463AE400231AE442464B463E
:1043E0000020334901F0E8F8FFF75FBB002C7FF4B1
:1043F00065ABC3F5826303334BFA03F202FA03F3AE
:104400005B4565D00494FFF732BB2D4B9C453FF7CD
:104410000EAE049B029339E64FF48025012316E487
:1044200021A3D3E90023DDE9080100F09BFF1EA3CF
:10443000D3E9002300F096FFFFF737BBDDE9080161
:1044400019A3D3E9002300F08DFF17A3D3E90023BC
:1044500000F088FFFFF729BB09A3D3E90023DDE9BA
:10446000080100F07FFF06A3D3E9002300F07AFFE4
:10447000FFF71BBBAFF300803E5555555555C53F63
:1044800059F3F8C21F6EA501000000604715F73F01
:1044900044DF5DF80BAE543E555555555555D53F47
:1044A000FE822B654715F73F9C7500883CE4377EFC
:1044B0000000F03FFFCB9040FEFFEF3F0000D03FF9
:1044C0000000E03F049A00F093F902460B46C3E671
:1044D00002F00102C2F102020492FFF7C8BA00BF63
:1044E00021F0004C2DE9F8434FEA1C5CDFF86C81A9
:1044F0004FEA0C5CC44506460F460B46024600F0E8
:104500008F8000296FDD0F1578D0A7F2FF37C3F336
:104510001303F90743F4801360D4D10F4FF0000C5C
:1045200001EB43037F105200654616204FF4001143
:104530006C189C424FEAD2764FEA420202DC1B1B07
:1045400065188C44013806EB43034FEA5101EFD163
:10455000804620264FF0004109E023D0D40F013ED1
:104560004FEA510104EB43034FEA42021ED0AB4233
:1045700001EB0804F1DD04F00049B9F1004F04EB50
:10458000010809D0A9465B1B944288BF03F1FF33A1
:10459000121B08444D46E1E7B8F1000FF2DB05F1CC
:1045A0000109F0E79442E6D91D46D7E71A4304D043
:1045B000431C41D000F00103184446084FEA6C0345
:1045C0001CF0010F03F17F5303F5001318BF46F0F1
:1045D000004603EB07513046BDE8F883D10F01EBED
:1045E0004303520099E721F00043034322D051BB1B
:1045F0000F46D30A153F5205002BFAD013F4801151
:104600001DD15B00D80201F10101FAD5C1F1010011
:10461000C1F1200422FA04F407448A40234374E7DA
:1046200002460B4600F09EFE32463B4600F0E8FC98
:10463000BDE8F883BDE8F8830CF1010CBEE7202447
:1046400001200021E6E702460B4600F0D7FC0246B7
:104650000B4600F0B1FFBDE8F88300BF0000F07F1B
:1046600021F00041704700BF41F0004101F580108A
:10467000C00F704731F0004310B408D00F4AA3F5C3
:10468000801494420AD804205DF8044B7047002837
:104690000CBF022003205DF8044B7047B3F5801F68
:1046A00001D20320F7E7064A934201D00020F2E747
:1046B000D0F1010038BF0020EDE700BFFFFFDF7F32
:1046C0000000F07F0020704700200149704700BFC4
:1046D0000000F87F2DE9F043C1F30A5CACF2FF372C
:1046E000132F83B002460B460D46894680464FEA9B
:1046F000D17630DC002F4CDB3A49394101EA030026
:1047000010432DD0490801EA030858EA02080CD0EA
:104710004FF480233B41132F25EA010141EA0309AD
:1047200014BF4FF000084FF000482F494B4601EBF3
:10473000C606D6E9004542462046294600F060FC00
:10474000CDE90001DDE9000122462B4600F056FCD0
:1047500003B0BDE8F083332F07DDB7F5806F3ED09F
:104760001046194603B0BDE8F083ACF2134C4FF08D
:10477000FF3121FA0CF10142F2D049080142D4D0B4
:104780004FF0804848FA0CFC20EA010141EA0C088D
:10479000CBE721F000410143E2D0C3F31301014311
:1047A0004C420C431048590C240B490404F40024D7
:1047B00044EA010300EBC601D1E900452046294641
:1047C00000F01EFCCDE90001DDE900012B46224688
:1047D00000F014FC21F0004343EAC671C2E700F088
:1047E0000FFCBFE7FFFF0F00B064000000000000F7
:1047F000C1F30A532DE9F041904606460F460A469A
:104800001BBB21F00043034334D0354B002200F0A2
:10481000A9FD344B064698450F463BDBC1F30A53CE
:10482000363B0A46434440F2FE718B4216DD28A116
:10483000D1E9000132463B4600F05AF824A3D3E9FF
:10484000002300F08FFDBDE8F08140F2FF74A34229
:1048500027D0434440F2FE718B42E8DC002B0BDD95
:1048600022F0FF4222F4E00242EA03573046394682
:10487000BDE8F081BDE8F08113F1350F17DA4CF295
:1048800050339845D3DC14A1D1E9000132463B46B0
:1048900000F02EF810A3D3E9002300F063FDBDE87B
:1048A000F08102460B4600F0ABFBBDE8F08122F040
:1048B000FF4222F4E002363342EA035730463946DB
:1048C0000022094B00F04EFDBDE8F081AFF30080FF
:1048D0009C7500883CE4377E59F3F8C21F6EA50131
:1048E00000005043B03CFFFF0000903CAFF300805D
:1048F00030B403F0004321F0004243EA020130BC2F
:10490000704700BFF0B5012187B0002406461F485C
:10491000FDF7DCFA0B2320468DF804308DF80640B5
:104920008DF80540FCF784FE19491A4A1A4B1B4DB5
:1049300011F806E0975D9E5D032208238DF80700BD
:1049400001A928468DF80F208DF80D308DF810E064
:104950008DF808408DF809408DF813408DF81170DE
:104960008DF80E60FCF794FD03A92846FCF7C8FDFE
:1049700001232B6269690A4B802241F001016961C0
:104980001A6083F8072307B0F0BD00BF00020500DE
:1049900000000020D0000020100000200020004077
:1049A00000E100E047F21A63984210B523D91B4B8F
:1049B00000221A701A4B46F2BD621C789042E4B293
:1049C00027D8A1F5FA7189B241F2941399420AD815
:1049D000124B1B783BB10220072108220123FDF76F
:1049E000D9FF012010BD0220072108220023FDF776
:1049F000D1FF002010BD47F2AF239842DAD8074C10
:104A000045F6E973012298422270D3D8044B1A70FC
:104A1000D7E7002CD5D000221A70D2E72100002061
:104A2000E4000020F0B5354D89B03548012102ACD5
:104A3000FDF74CFA0FCD0FC495E80300002584E87C
:104A400003004FF48057052429464FF4E136042033
:104A50000A2201238DF808408DF81540ADF8165054
:104A6000ADF818700496FDF795FF01212B460A4614
:104A70000420FDF78FFF0122134602200821FDF7D5
:104A800089FF204C022009210A220123FDF782FF21
:104A900028460A2201230E21FDF77CFF204602A9A9
:104AA000FEF776F9636D012223F4E06343F480732B
:104AB0006365636D082143F00303636502201346B9
:104AC0008DE824000A46FDF72FFF0F4B0F4A4FF4E5
:104AD00080714FF4801420201C6083F81403C2F806
:104AE0001C11D2F8104102200C436021C2F8104181
:104AF000186083F8011309B0F0BD00BFD86400004E
:104B00000032040000E0004000E100E000600040EE
:104B100010B506480121FDF7D9F9BDE81040022083
:104B2000072108220123FDF735BF00BF00D2040092
:104B300010B5012082B0024609210023FDF72AFFAB
:104B4000012002460A210023FDF724FF0124092148
:104B500020460A46009401940023FDF7E5FE0A2151
:104B60000A460094019420460023FDF7DDFE054B24
:104B70004FF400628021C3F880211A6083F80B1380
:104B800002B010BD00E100E010B5012182B00E4876
:104B9000FDF79CF90023012201A88DF806308DF85D
:104BA00005308DF80420FEF7C3F8084B08484FF095
:104BB0008042062440218461C3F880211A6083F872
:104BC0001E1302B010BD00BF6016100000E100E02F
:104BD0000000084030B5154D87B001AC0FCD0FC4B3
:104BE0002A68002302254FF4405101A82260ADF845
:104BF00008108DF815308DF806308DF804300493C8
:104C00008DF816308DF8143003958DF80550FCF7AB
:104C10002DFD074B07484FF0004280210563C3F884
:104C200080211A6083F81E1307B030BD04650000B0
:104C300000E100E00010084000B5084A85B052F8D5
:104C4000580F01AB5168127A03C3054801A91A70C5
:104C5000FEF71EF905B05DF804FB00BFC06400005C
:104C60000080084010B5174B82B01C686846FEF7FC
:104C700075F8B4F1805F03D39DF80030032B19D091
:104C800002200021FEF736F801210F48FDF71EF93A
:104C90000320FDF709FC0D480121FDF717F90C4829
:104CA0000321FDF78BF901210A460520FDF7FAFCE7
:104CB00002B010BD074B1A6822F0500242F01002F9
:104CC0001A60DDE7FC81E00F408104000043020030
:104CD00002001800C0800C4010B50023064A0749A6
:104CE000044618460C601360FEF7E8F9FEF7F6F884
:104CF000034B01221A7010BD500300205403002002
:104D0000E5000020F8B5069C17461E460D46FEF746
:104D10002BFA39460120FEF7EFFA2046FEF788F914
:104D20000024A54220464FF0000104BF284601217F
:104D30000134FEF7B3F9052CF3D1731E0A2B3ED8CC
:104D4000DFE803F00B10151A1F24292E3338060054
:104D50001B48BDE8F840FEF7E7BA1A48BDE8F8403E
:104D6000FEF7E2BA1848BDE8F840FEF7DDBA17488A
:104D7000BDE8F840FEF7D8BA1548BDE8F840FEF7A0
:104D8000D3BA1448BDE8F840FEF7CEBA1248BDE8E1
:104D9000F840FEF7C9BA1148BDE8F840FEF7C4BABA
:104DA0000F48BDE8F840FEF7BFBA0E48BDE8F8402E
:104DB000FEF7BABA0C48BDE8F840FEF7B5BAF8BD40
:104DC00074650000246500002C6500003465000057
:104DD0003C650000446500004C650000546500001F
:104DE0005C650000646500006C650000F0B51E4C59
:104DF00083B025789DF82070BDB11C4D2E68864289
:104E000016D21B4ED6F800E02968C1EB0E01014412
:104E100031601849286008683168884219D8FEF75F
:104E20005DF8FEF723F900232370207803B0F0BD6E
:104E30002E68B0420E4EECD2D6F800C0D5F800E095
:104E4000C1EB0111CEEB0C0E86440EEB81013160FB
:104E5000DFE70A99104600913A461946099BFFF789
:104E600051FF207803B0F0BDE5000020540300207E
:104E700050030020240000202DE9F04F85B0FFF7FB
:104E8000F1FEFFF745FEFFF7CDFDFFF751FEFFF7FF
:104E90007BFEFFF79FFEFFF7CFFEFBF757FD2E4C83
:104EA000DFF8CC902D4F2E4E2E4DDFF8D0B0DFF82E
:104EB000D0A04FF000083B8822689BB2C3EB0313DD
:104EC000B2EB830F42D2284A1378002B3BD1DFF894
:104ED000A4E0D9F80020DEF8003024489A42B5BF9B
:104EE0002349244A0B6813681D4933601F4BDFF8C0
:104EF00094E01A6833689A42B4BF03680B682B6069
:104F0000206839882B689EF800C0DBF8002089B241
:104F10000192DAF80020CDF800C002924246FFF775
:104F200065FFFBF75DFA2368034413482360FDF730
:104F3000A3FF42F20F73984502D808F10108BAE7BF
:104F40004FF00008B7E7FBF7F3F9C0E7FBF73CF9D0
:104F5000014900230B60B6E7E80000203400002080
:104F6000380000202C000020D50000202800002060
:104F70003C0000203000002000800840D8000020C5
:104F8000CC000020DC0000200B0A41700370704749
:104F9000002303804B7803800A7843EA02230380CE
:104FA000704700BF00230360CB7803608A7843EA30
:104FB000022303604A7843EA024303600A7843EA23
:104FC00002630360704700BF704700BF704700BFB7
:104FD000014B1860704700BF58030020014601488C
:104FE000FDF744BF00E00040014B1B69704700BF64
:104FF00000E0004081F0004102E000BF83F0004388
:1050000030B54FEA41044FEA430594EA050F08BF63
:1050100090EA020F1FBF54EA000C55EA020C7FEA27
:10502000645C7FEA655C00F0E2804FEA5454D4EBA4
:105030005555B8BF6D420CDD2C4480EA020281EA6E
:10504000030382EA000083EA010180EA020281EAA6
:105050000303362D88BF30BD11F0004F4FEA0131F8
:105060004FF4801C4CEA113102D0404261EB410107
:1050700013F0004F4FEA03334CEA133302D052428D
:1050800063EB430394EA050F00F0A780A4F1010449
:10509000D5F1200E0DDB02FA0EFC22FA05F2801883
:1050A00041F1000103FA0EF2801843FA05F3594169
:1050B0000EE0A5F120050EF1200E012A03FA0EFCE8
:1050C00028BF4CF0020C43FA05F3C01851EBE37112
:1050D00001F0004507D54FF0000EDCF1000C7EEB2F
:1050E00000006EEB0101B1F5801F1BD3B1F5001F6D
:1050F0000CD349085FEA30004FEA3C0C04F101048C
:105100004FEA445212F5800F80F09A80BCF1004FB4
:1051100008BF5FEA500C50F1000041EB045141EA36
:10512000050130BD5FEA4C0C404141EB010111F437
:10513000801FA4F10104E9D191F0000F04BF0146E2
:105140000020B1FA81F308BF2033A3F10B03B3F1C0
:1051500020020CDA0C3208DD02F1140CC2F10C0250
:1051600001FA0CF021FA02F10CE002F11402D8BFAE
:10517000C2F1200C01FA02F120FA0CFCDCBF41EA7A
:105180000C019040E41AA2BF01EB0451294330BD49
:105190006FEA04041F3C1CDA0C340EDC04F1140426
:1051A000C4F1200220FA04F001FA02F340EA0300FD
:1051B00021FA04F345EA030130BDC4F10C04C4F143
:1051C000200220FA02F001FA04F340EA0300294623
:1051D00030BD21FA04F0294630BD94F0000F83F46D
:1051E000801306BF81F480110134013D4EE77FEA50
:1051F000645C18BF7FEA655C29D094EA050F08BF9C
:1052000090EA020F05D054EA000C04BF194610467C
:1052100030BD91EA030F1EBF0021002030BD5FEAC0
:10522000545C05D14000494128BF41F0004130BDE8
:1052300014F580043CBF01F5801130BD01F000453C
:1052400045F0FE4141F470014FF0000030BD7FEAAF
:10525000645C1ABF194610467FEA655C1CBF0B46AA
:10526000024650EA013406BF52EA033591EA030FC1
:1052700041F4002130BD00BF90F0000F04BF0021B9
:10528000704730B54FF4806404F132044FF00005EC
:105290004FF0000150E700BF90F0000F04BF002165
:1052A000704730B54FF4806404F1320410F00045CB
:1052B00048BF40424FF000013EE700BF42004FEAC6
:1052C000E2014FEA31014FEA02701FBF12F07F4343
:1052D00093F07F4F81F06051704792F0000F14BF40
:1052E00093F07F4F704730B54FF4607401F0004584
:1052F00021F0004120E700BF50EA010208BF7047DB
:1053000030B54FF000050AE050EA010208BF7047CF
:1053100030B511F0004502D5404261EB41014FF438
:10532000806404F132045FEA915C3FF4DCAE4FF03C
:1053300003025FEADC0C18BF03325FEADC0C18BF23
:10534000033202EBDC02C2F1200300FA03FC20FA74
:1053500002F001FA03FE40EA0E0021FA02F11444C1
:10536000C1E600BF70B54FF0FF0C4CF4E06C1CEAD6
:1053700011541DBF1CEA135594EA0C0F95EA0C0F4B
:1053800000F0DEF82C4481EA030621EA4C5123EABE
:105390004C5350EA013518BF52EA033541F48011ED
:1053A00043F4801338D0A0FB02CE4FF00005E1FBA0
:1053B00002E506F00042E0FB03E54FF00006E1FBEA
:1053C00003569CF0000F18BF4EF0010EA4F1FF042D
:1053D000B6F5007F64F5407404D25FEA4E0E6D416D
:1053E00046EB060642EAC62141EA55514FEAC5207E
:1053F00040EA5E504FEACE2EB4F1FD0C88BFBCF5FA
:10540000E06F1ED8BEF1004F08BF5FEA500E50F1AA
:10541000000041EB045170BD06F0004646EA010170
:1054200040EA020081EA0301B4EB5C04C2BFD4EBA2
:105430000C0541EA045170BD41F480114FF0000E9B
:10544000013C00F3AB8014F1360FDEBF002001F009
:10545000004170BDC4F10004203C35DA0C341BDC83
:1054600004F11404C4F1200500FA05F320FA04F055
:1054700001FA05F240EA020001F0004221F0004189
:1054800010EBD37021FA04F642EB06015EEA430EFC
:1054900008BF20EAD37070BDC4F10C04C4F120052C
:1054A00000FA04F320FA05F001FA04F240EA0200DF
:1054B00001F0004110EBD37041F100015EEA430EB0
:1054C00008BF20EAD37070BDC4F1200500FA05F2D0
:1054D0004EEA020E20FA04F301FA05F243EA02034F
:1054E00021FA04F001F0004121FA04F220EA02005E
:1054F00000EBD3705EEA430E08BF20EAD37070BDA4
:1055000094F0000F0FD101F00046400041EB010183
:1055100011F4801F08BF013CF7D041EA060195F065
:10552000000F18BF704703F00046520043EB03031F
:1055300013F4801F08BF013DF7D043EA060370470C
:1055400094EA0C0F0CEA135518BF95EA0C0F0CD017
:1055500050EA410618BF52EA4306D1D181EA03015D
:1055600001F000414FF0000070BD50EA410606BF57
:105570001046194652EA430619D094EA0C0F02D19C
:1055800050EA013613D195EA0C0F05D152EA0336E1
:105590001CBF104619460AD181EA030101F00041FF
:1055A00041F0FE4141F470014FF0000070BD41F048
:1055B000FE4141F4780170BD70B54FF0FF0C4CF422
:1055C000E06C1CEA11541DBF1CEA135594EA0C0F41
:1055D00095EA0C0F00F0A7F8A4EB050481EA030E8E
:1055E00052EA03354FEA013100F088804FEA033375
:1055F0004FF0805545EA131343EA12634FEA022243
:1056000045EA111545EA10654FEA00260EF0004103
:105610009D4208BF964244F1FD0404F5407402D255
:105620005B084FEA3202B61A65EB03055B084FEAE6
:1056300032024FF480104FF4002CB6EB020E75EBE3
:10564000030E22BFB61A754640EA0C005B084FEA0B
:105650003202B6EB020E75EB030E22BFB61A754688
:1056600040EA5C005B084FEA3202B6EB020E75EBD3
:10567000030E22BFB61A754640EA9C005B084FEA4B
:105680003202B6EB020E75EB030E22BFB61A754658
:1056900040EADC0055EA060E18D04FEA051545EA47
:1056A00016754FEA06164FEAC30343EA52734FEAF0
:1056B000C2025FEA1C1CC0D111F4801F0BD141EA69
:1056C00000014FF000004FF0004CB6E711F4801FCE
:1056D00004BF01430020B4F1FD0C88BFBCF5E06FAE
:1056E0003FF6AFAEB5EB030C04BFB6EB020C5FEABE
:1056F000500C50F1000041EB045170BD0EF0004E13
:105700004EEA113114EB5C04C2BFD4EB0C0541EA44
:10571000045170BD41F480114FF0000E013C90E641
:1057200045EA060E8DE60CEA135594EA0C0F08BF05
:1057300095EA0C0F3FF43BAF94EA0C0F0AD150EA04
:1057400001347FF434AF95EA0C0F7FF425AF104697
:1057500019462CE795EA0C0F06D152EA03353FF4BF
:10576000FDAE1046194622E750EA410618BF52EA3C
:1057700043067FF4C5AE50EA41047FF40DAF52EA10
:1057800043057FF4EBAE12E74FF0FF3C06E000BFAD
:105790004FF0010C02E000BF4FF0010C4DF804CDBA
:1057A0004FEA410C7FEA6C5C4FEA430C18BF7FEA7A
:1057B0006C5C1BD001B050EA410C0CBF52EA430CA8
:1057C00091EA030F02BF90EA020F0020704710F128
:1057D000000F91EA030F58BF994208BF90422CBFB7
:1057E000D8176FEAE37040F0010070474FEA410CB0
:1057F0007FEA6C5C02D150EA013C07D14FEA430CCE
:105800007FEA6C5CD6D152EA033CD3D05DF8040B3E
:10581000704700BF8446104662468C461946634670
:1058200000E000BF01B5FFF7B7FF002848BF10F147
:10583000000F01BD4DF808EDFFF7F4FF0CBF01208C
:1058400000205DF808FB00BF4DF808EDFFF7EAFF08
:1058500034BF012000205DF808FB00BF4DF808EDC3
:10586000FFF7E0FF94BF012000205DF808FB00BFB8
:105870004DF808EDFFF7CEFF94BF012000205DF842
:1058800008FB00BF4DF808EDFFF7C4FF34BF01204F
:1058900000205DF808FB00BF4A0011D212F500128B
:1058A00011D20DD56FF47873B3EB62520ED44FEA78
:1058B000C12343F0004343EA505323FA02F07047F8
:1058C0004FF00000704750EA013002D14FF0FF3036
:1058D00070474FF00000704780F0004002E000BFCA
:1058E00081F0004142001FBF5FEA410392EA030FCB
:1058F0007FEA226C7FEA236C6AD04FEA1262D2EB15
:105900001363C1BFD218414048404140B8BF5B4219
:10591000192B88BF704710F0004F40F4000020F0B2
:105920007F4018BF404211F0004F41F4000121F0C8
:105930007F4118BF494292EA030F3FD0A2F1010212
:1059400041FA03FC10EB0C00C3F1200301FA03F150
:1059500000F0004302D5494260EB4000B0F5000F73
:1059600013D3B0F1807F06D340084FEA310102F132
:105970000102FE2A51D2B1F1004F40EBC25008BFE4
:1059800020F0010040EA03007047490040EB0000AE
:1059900010F4000FA2F10102EDD1B0FA80FCACF1DD
:1059A000080CB2EB0C0200FA0CF0AABF00EBC250DC
:1059B00052421843BCBFD0401843704792F0000FCA
:1059C00081F4000106BF80F400000132013BB5E71D
:1059D0004FEA41037FEA226C18BF7FEA236C21D093
:1059E00092EA030F04D092F0000F08BF08467047F8
:1059F00090EA010F1CBF0020704712F07F4F04D1C6
:105A0000400028BF40F00040704712F100723CBFD8
:105A100000F50000704700F0004343F0FE4040F402
:105A2000000070477FEA226216BF08467FEA2363C0
:105A30000146420206BF5FEA412390EA010F40F4AB
:105A4000800070474FF0000304E000BF10F00043F7
:105A500048BF40425FEA000C08BF704743F09643DE
:105A600001464FF000001CE050EA010208BF7047F9
:105A70004FF000030AE000BF50EA010208BF704780
:105A800011F0004302D5404261EB41015FEA010C95
:105A900002BF84460146002043F0B64308BFA3F18D
:105AA0008053A3F50003BCFA8CF2083AA3EBC2536F
:105AB00010DB01FA02FC634400FA02FCC2F120028E
:105AC000BCF1004F20FA02F243EB020008BF20F0C5
:105AD0000100704702F1200201FA02FCC2F120022B
