:1000000000000220052900003B2900003D290000D6
:100010003F29000041290000432900003929000040
:10002000392900003929000039290000452900003C
:100030004729000039290000492900004B29000008
:1000400071550000D93F00005129000053290000DC
:10005000552900005729000059290000553F00008C
:100060005D2900005F290000612900007540000043
:100070006529000067290000692900006B2900003C
:100080006D2900006F29000071290000732900000C
:10009000AD3F000077290000792900007B2900008E
:1000A0007D2900007F2900008129000083290000AC
:1000B000852900008729000091400000B52F00002D
:1000C0008D2900008F29000091290000932900004C
:1000D00095290000972900009929000000000000E0
:1000E0000000000000000000000000000000000010
:1000F0000000000000000000000000000000000000
:1001000010B5054C237833B9044B13B10448AFF351
:1001100000800123237010BDB0000020000000000B
:100120006081000008B5064B1BB106480649AFF3D5
:1001300000800648036813B1054B03B1984708BD1A
:100140000000000060810000B4000020B00000202A
:1001500000000000154B002B08BF134B9D46A3F574
:10016000803A00218B460F461348144A121A07F0B2
:10017000A0FC0F4B002B00D098470E4B002B00D05B
:1001800098470020002104000D000D48002802D0EF
:100190000C48AFF3008007F05DFC2000290004F05C
:1001A000BFF807F043FC00BF000008000000022079
:1001B0000000000000000000B00000205C030020F0
:1001C000000000000000000080B487B000AF78603D
:1001D00013460A46FA70BB70BB78002B04D010237C
:1001E000FB603E4B3B6103E00023FB603C4B3B610B
:1001F0007B685A6B3B691340BB6000237B61FB78D3
:10020000062B5BD801A252F823F000BF29020000A0
:10021000470200006B02000089020000BD020000DE
:10022000BD020000AD0200002E4B5B6803F4FE43EC
:100230007A6913437B612B4B5B6803F07F037A6918
:1002400013437B613DE0274B5B6803F0FE431B0ECD
:100250001B027A6913437B61224B5B6803F4FE0344
:100260001B0C7A6913437B612BE01E4B9B6803F4E4
:10027000FE437A6913437B611A4B9B6803F07F034B
:100280007A6913437B611CE0164B9B6803F0FE43C5
:100290001B0E1B027A6913437B61124B9B6803F4AC
:1002A000FE031B0C7A6913437B610AE00D4BDB688C
:1002B00003F07F037A6913437B6102E000237B61D3
:1002C00000BFFB687A699A40BB681A437B685A632F
:1002D0001C37BD465DF8047B704700BFFFFF808080
:1002E0008080FFFFB081E00F80B584B000AF786000
:1002F00039603B681B79FB72FB7A002B06D11B48E7
:10030000002100F081F80346FB7208E01748002145
:1003100000F07AF84FF4FA40002100F075F87B689D
:100320000A225A603B681B781A063B68DB781B047C
:1003300003F4F8131A43FB7A1B0203F4FE431A4337
:100340003B685B781B011A433B689B781343FB6057
:100350003B685B79002B03D0FB6843F00803FB602C
:100360007B68FA681A601037BD4680BD405DC600E4
:1003700080B584B000AF786039607B6802225A6033
:100380003B689B78786819460022FFF71DFF3B68A1
:100390001B781A073B685B781B051A433B681B797F
:1003A0001B0213431A463B68DB781B011343FB60B7
:1003B0003B689B79002B03D0FB6843F08073FB60A4
:1003C0003B68DB79002B03D0FB6843F00403FB6040
:1003D0003B685B79002B03D0FB6843F00203FB60B2
:1003E0003B681B7A002B03D0FB6843F00103FB60E2
:1003F0003B689B781B04FA681343FB607B68FA68D0
:10040000DA601037BD4680BD80B584B000AF78603B
:1004100039607A68134B9A4202D9124B7B6006E02E
:100420007B68B3F5FA4F02D24FF4FA437B603B6826
:10043000002B03D10C4800F05FFC38603A687B6801
:1004400013445A1E7B68B2FBF3F3FB60FB68002B7E
:1004500002D0FB68013BFB60FB68DBB2184610373B
:10046000BD4680BD405DC6004081040080B582B0BD
:1004700000AF78607B680A225A607B680022DA60ED
:100480007B6800221A617B684FF4F8121A607B685F
:1004900000225A617B6840F203321A627B6840F2A4
:1004A0004772DA63786800210022FFF78DFE7868D2
:1004B00000210122FFF788FE0837BD4680BD00BF3E
:1004C00080B582B000AF78607B68002B08D11148FE
:1004D00000F012FC78607B68002B01D101237B6067
:1004E0007A680D4B9A4201D90B4B7B607B6803F510
:1004F000742303F23F237B607A68084BA3FB02134B
:100500009B0C7B607B68DBB2013BDBB21846083793
:10051000BD4680BD408104000048E80183DE1B43E6
:1005200080B487B000AFF860B9607A60FB6803F10F
:100530000473DA00BB6813449B007B617B697A68B3
:100540001A601C37BD465DF8047B704780B485B0E7
:1005500000AF786039607B6803F10473DA003B68B0
:1005600013449B00FB60FB681B6818461437BD46AC
:100570005DF8047B704700BF80B485B000AF786041
:100580007B68002B04D07B68B3F5004F00D800BF18
:100590007B68B3FA83F3C3F11F03FB60FB68184663
:1005A0001437BD465DF8047B704700BF80B400AFD0
:1005B000044BDB6C1B0EDBB21846BD465DF8047BBA
:1005C000704700BFB081E00F80B400AF054BDB6C1B
:1005D00003F47F031B0CDBB21846BD465DF8047BB9
:1005E000704700BFB081E00F80B582B000AFFFF769
:1005F000EBFF03464A2B04D0792B02D0482B22D0A4
:1006000023E0144B1B699BB203F03F039BB21B0218
:10061000FB80104B9B699BB203F0F0039AB2FB88FE
:100620001343FB800B4BDB6903F0F0031B099AB209
:10063000FB881343FB80FB88B3F5017F01D3064B96
:1006400004E0064B02E0054B00E0002318460837A3
:10065000BD4680BDD0FF0FE000366E010048E801C6
:1006600080B584B000AF786039607A683B689A42A0
:1006700094BF00230123DBB2FB6006481E21FA6809
:10068000FFF74EFF04480821FA68FFF749FF1037CB
:10069000BD4680BD00800C4004800C4080B582B017
:1006A00000AF07481E21FFF751FF78600548082179
:1006B000FFF74CFF38607B6818460837BD4680BDA1
:1006C00000800C4004800C4080B582B000AF214B0C
:1006D0005B6903F4E063B3F5007F1CD0B3F5007FE2
:1006E00005D8002B25D0B3F5807F1FD02AE0B3F5C5
:1006F000C06F24D0B3F5E06F1ED0B3F5407F21D199
:10070000FFF754FF0346122B02D9134B7B601CE00A
:10071000124B7B6019E0FFF749FF0346122B02D909
:100720000F4B7B6011E00F4B7B600EE00E4B7B604C
:100730000BE00E4B7B6008E00D4B7B6005E00D4B42
:100740007B6002E000237B6000BF7B6818460837AF
:10075000BD4680BD00800C40804F120040420F001B
:1007600040B56400C0CF6A00C0D8A700809FD50004
:10077000406F4001003FAB0180B582B000AF0D4833
:1007800000F0A6FB0346FB70FB78072B05D0082B77
:1007900007D102F035F9786006E0FFF795FF786041
:1007A00002E000237B6000BF7B6818460837BD4627
:1007B00080BD00BF06000C0080B485B000AF78603B
:1007C000284BDB6B002B0CBF00230123BB72254B96
:1007D00041F67132DA63234B5B6803F00703FB6079
:1007E000FB68012B01D9042B02D10023FB7202E02C
:1007F0000123FB7200BF7A681B4B9A4207D9FB7A30
:10080000002B01D0052300E00423FB6016E07A688A
:10081000154B9A420BD87A68144B9A4207D9FB7A47
:10082000002B01D0032300E00123FB6006E0FB7AEC
:10083000002B01D0022300E00023FB60094B094A92
:10084000526822F00701FA680A435A60BB7A002B0B
:1008500002D0044B0022DA631437BD465DF8047BF6
:10086000704700BF00000C400048E8010024F4007D
:1008700080B500AF02F0BAF803461846FFF79CFFB8
:1008800080BD00BF90B585B000AF78600023BB602D
:100890007B68344A934203D0334A934200D000E04D
:1008A00000BF786800F014FB0346FB607B682D4AAC
:1008B000934203D02C4A934206D00CE02B4B9B6A08
:1008C00003F00303FB6006E0284B9B6A03F00C0374
:1008D0009B08FB6000BFFB68032B3AD801A252F8CB
:1008E00023F000BF1B090000F5080000FD08000010
:1008F0000509000002F016F9B8602DE002F026F9B3
:10090000B86029E002F058F80446FFF7C7FE034636
:10091000013324FA03F3BB601EE00023BB607A6856
:10092000104B9A4203D07A680F4B9A4210D10F4B6A
:100930009A6A79680B4B994201D1102300E0142385
:1009400022FA03F3002B03D002F0F6F8B86003E0BC
:1009500002E00023BB6000BFBB6818461437BD46E9
:1009600090BD00BF0200180003001A0000800C4078
:1009700080B483B000AF7860094B5B6D03F0010376
:10098000002B00D006E000BF054B1A6D7B681340BA
:10099000002BF9D10C37BD465DF8047B704700BFD2
:1009A00000800C4080B582B000AF104800F090FA93
:1009B0000346FB70FB78032B07D0082B09D0022BD2
:1009C0000BD102F0C3F878600AE002F0ABF878606F
:1009D00006E002F015F8786002E000237B6000BFBB
:1009E0007B6818460837BD4680BD00BF072320003E
:1009F000B0B584B000AF786039607B681B0903F044
:100A00000F03FB60FB68013B062B00F2F68001A29E
:100A100052F823F0310A0000FB0B0000FB0B000032
:100A2000650A00008F0A0000E30A0000A70B00001F
:100A30003B68002B03D03B68082B00D800BFFFF7B2
:100A400017FF704B6F4A126822F4E0313A68013A9E
:100A500092030A431A6001F0AFFFB860B868FFF76D
:100A6000ABFECBE03B68002B04D03B68B3F5007FC6
:100A700000D800BF3868FFF77FFD3860614B614ADE
:100A8000926822F00F013A680A439A60B6E03B6828
:100A9000002B04D03B68B3F5007F00D800BFFFF700
:100AA000E7FE01F0ADFF02463B68B2FBF3F4FFF74F
:100AB0009BFD034620461946FFF7D2FD3868FFF735
:100AC0005BFD38604F4B4F4A526822F00F013A6885
:100AD0000A435A6001F070FFB860B868FFF76CFE17
:100AE0008CE07B68484A93421ED0474A934203D821
:100AF000464A934207D055E0454A934225D0454A9D
:100B000093423FD04EE00420FFF732FF3868FFF7F2
:100B100033FD38603B4B3B4A926E22F0F0013A685D
:100B200012010A439A663DE00420FFF721FF38686E
:100B3000FFF722FD3860334B324A926E22F4706127
:100B40003A6812020A439A662CE03B680F2B03D9DD
:100B50003B68802B00D800BF0420FFF709FF3868EE
:100B6000FFF70AFD3860274C264B9B6E23F4405557
:100B70001020FFF701FD03463A68D31A1B032B43ED
:100B8000A3660FE00420FFF7F3FE3868FFF7F4FCDC
:100B900038601C4B1B4A926E22F003013A680A43EC
:100BA0009A6600BF2AE07B681B4A934203D01B4A27
:100BB000934210D020E04020FFF7DAFE3868FFF7BC
:100BC000DBFC38600F4B0F4A126F22F003013A68CA
:100BD0000A431A6710E04020FFF7CAFE3868FFF7A3
:100BE000CBFC3860074B074A126F22F030013A689D
:100BF00012010A431A6700BF00E000BF1037BD466C
:100C0000B0BD00BF00800C406026120060161000CE
:100C1000600024006006280070071400701716009A
:100C200090B587B000AF78600B46FB7000233B6146
:100C30007B681B0A03F00F03013B092B49D801A273
:100C400052F823F0890C00008F0C00006D0C00009E
:100C5000D30C0000D30C0000950C00009F0C00008A
:100C6000D30C0000D30C0000A90C00001B4B7B61CF
:100C70001B4800F041F80446FFF7B6FC0346204647
:100C80001946FFF7EDFC12E0164B7B610FE0164BA7
:100C90007B610CE0154B7B6101233B6107E0144B4A
:100CA0007B6110233B6102E0124B7B6100BF7B68DC
:100CB0001B0B03F01F03FB603B69002B02D038695C
:100CC000FFF756FEFB787869F9681A46FFF728FCAB
:100CD00000E000BF1C37BD4690BD00BF40800C4007
:100CE0000043020008800C4044800C4058800C40B7
:100CF00060800C4078800C4090B585B000AF786083
:100D00007B6803F47813B3F5A01F00F0AB80B3F554
:100D1000A01F1AD8B3F5402F00F0BF80B3F5402FC5
:100D200008D8B3F5003F3CD0B3F5802F2DD0002B71
:100D300027D0BEE0B3F5801F3CD0B3F5901F47D05D
:100D4000B3F5602F00F0AD80B3E0B3F5001F00F005
:100D5000AC80B3F5001F0AD8B3F5C01F25D0B3F59A
:100D6000D01F7AD0B3F5B01F00F08980A1E0B3F5B1
:100D7000181F4ED0B3F5201F62D0B3F5101F35D029
:100D800097E001F03DFEF86096E001F039FEF86072
:100D90004C4B9B6803F00F03FA6822FA03F3FB60E5
:100DA0008AE001F009FEF86086E04748FFF76AFD37
:100DB000F86081E04448FFF765FDF860414B9B6EA9
:100DC00003F0F0031B09FA6822FA03F3FB6073E0F7
:100DD0003D48FFF757FDF8603A4B9B6E03F4706394
:100DE0001B0AFA6822FA03F3FB6065E03648FFF756
:100DF00049FDF860334B9B6E03F440531C0B1020ED
:100E0000FFF7BAFB03462344FA6822FA03F3FB60B8
:100E100052E02D48FFF736FDF8602A4B9B6E03F435
:100E200040531B0BFA6822FA03F3FB60254BDB6F80
:100E300003F007030133FA68B2FBF3F3FB603BE016
:100E40002148FFF71FFDF8601E4B9B6E03F0030364
:100E5000FA6822FA03F3FB602EE01C48FFF712FD4C
:100E6000F86029E01948FFF70DFDF860154B1B6F7E
:100E700003F00303FA6822FA03F3FB601CE0134853
:100E8000FFF700FDF8600F4B1B6F03F030031B09E9
:100E9000FA6822FA03F3FB600EE0FFF76DFCF860DE
:100EA0000AE0FFF711FCF86006E0FFF77BFDF86051
:100EB00002E00023FB6000BFFB6818461437BD4604
:100EC00090BD00BF00800C400200180003001A0013
:100ED00080B485B000AF78600123FB737B6803F0BA
:100EE0000F03BB60BB68013B062B00F2938001A29D
:100EF00052F823F0110F0000470F0000830F00008D
:100F00001510000015100000BF0F0000E10F0000D9
:100F1000454BDB6A03F47053B3F5805F09D0B3F53A
:100F2000005F03D0B3F5006F06D008E00223FB7327
:100F300008E00323FB7305E00423FB7302E00523B1
:100F4000FB7300BF69E0384B9B6A03F00303022B7D
:100F500006D0032B07D0012B08D10323FB730FE02E
:100F60000223FB730CE00623FB7309E02E4B9B6A04
:100F700003F48033002B02D00923FB7300E000BF91
:100F80004BE0294B9B6A03F00C03082B06D00C2B7B
:100F900007D0042B08D10323FB730FE00223FB735C
:100FA0000CE00623FB7309E01F4B9B6A03F48013DC
:100FB000002B02D00923FB7300E000BF2DE01A4B89
:100FC0001B6803F08053002B03D0B3F1805F03D084
:100FD00023E00723FB7302E00823FB7300BF1CE040
:100FE000114BDB6A03F46033B3F5803F08D0B3F5EF
:100FF000003F08D0B3F5004F08D10823FB7308E089
:101000000223FB7305E00323FB7302E00123FB7360
:1010100000BF02E00023FB7300BFFB7B18461437C0
:10102000BD465DF8047B704700800C4090B589B0E8
:1010300000AF78600B46FB700323FB610323FB7654
:1010400000233B617B6803F00F03FB60FB68013BFF
:10105000062B00F2348101A252F823F0791000002F
:101060006511000065110000BF120000BF120000F2
:101070002D12000057120000FB78023B072B00F2F4
:10108000228101A252F823F0A9100000B310000041
:10109000BD10000007110000C7120000C7120000B9
:1010A000C7120000C71200000423FB610023FB7677
:1010B00039E00323FB610123FB7634E00223FB616B
:1010C0000223FB76FFF790FA03465C1CFFF78CFACD
:1010D000034620461946FFF7C3FA01F011FD024608
:1010E0007C4B9A4206D97C4B7B4A126842F06002E4
:1010F0001A6018E0784B784A126822F0600242F0D9
:1011000020021A600FE00123FB610323FB76FFF747
:101110006BFA03465C1CFFF767FA03462046194644
:10112000FFF79EFA00BFFB7E18460121012200F066
:1011300069F9FFF79DFB684BFA695A626748FFF748
:10114000DBFD0446FFF750FA034620461946FFF739
:1011500087FA00F0E1FA01F02FFCB860B868FFF7F9
:101160002BFBADE0FB78013B082B00F2AE8001A227
:1011700052F823F0991100009F110000AF110000F8
:10118000CB120000CB120000BF110000CB120000F8
:10119000CB120000E311000000237B6126E0002059
:1011A0000121012200F02EF902237B611EE00120C3
:1011B0000121012200F026F901237B6116E001F0F4
:1011C000FBFBB860FFF710FA0346B8681946FFF753
:1011D00047FA434804210122FFF7A2F903237B6168
:1011E00004E000237B6101233B6100BFFB68022B0D
:1011F0000DD1394A384B9B6A23F4803323F0030323
:10120000796919433B691B040B43936258E0324AE6
:10121000314B9B6A23F4801323F00C037969890016
:1012200019433B691B050B43936249E0FB78072B8D
:1012300002D0082B07D049E0274B274A126822F03A
:1012400080521A6006E0244B234A126842F0805212
:101250001A6000BF34E0FB78032B14D0082B22D097
:10126000022B00D032E000200121012200F0CAF858
:10127000194B40225A6200BF174BDB6A03F48033DC
:10128000002BF9D01AE001200121012200F0BAF868
:10129000114B60225A6200BF0F4BDB6A03F400332C
:1012A000002BF9D00AE00C4B20225A6200BF0A4BF7
:1012B000DB6A03F40043002BF9D000BF00E000BF5D
:1012C000FFF7ECF902E000BF00E000BF2437BD46A5
:1012D00090BD00BF0048E80100800C4000430200C0
:1012E00040800C4090B587B000AF0346FB71FB799E
:1012F000052B5FD801A252F823F000BF15130000A0
:101300001F1300002D1300003B13000045130000C5
:101310004F130000294BDB6ADBB27B611EE0274BD9
:10132000DB6A03F47F431B0A7B6117E0234BDB6A14
:1013300003F47F031B0C7B6110E0204BDB6A1B0E68
:101340007B610BE01D4B1B6BDBB27B6106E01B4B33
:101350001B6B03F47F431B0A7B6100BF1120FFF767
:10136000B7FD0346FB74FB7C052B01D1FFF780FA28
:10137000134A134BDB6823F4FF6323F00703F97967
:10138000090219437B690B43D360FB7C052B05D114
:1013900001F012FBF860F868FFF70EFA0948FFF752
:1013A000ABFC0446FFF720F9034620461946FFF739
:1013B00057F900E000BF1C37BD4690BDB081E00F7B
:1013C00000800C400043020080B483B000AF78601E
:1013D0000B4B9B6D03F00803002B00D00BE07B68E8
:1013E00003F007037B60064B054AD26F22F007012A
:1013F0007A680A43DA670C37BD465DF8047B7047AC
:1014000000800C4080B586B000AF13460246FA71EA
:101410000A46BA717B71FB79042B4AD801A252F8B3
:1014200023F000BF71140000631400004714000093
:10143000391400005514000001233B610223FB60B6
:1014400001237B611DE004233B610823FB60032330
:101450007B6116E010233B612023FB6005237B6149
:101460000FE040233B618023FB6007237B6108E0A2
:101470004FF480733B614FF40073FB6009237B6181
:1014800000BFBB79002B0ED00C4B3A691A627B79F6
:10149000002B0BD000BF0A487969FFF757F80346C5
:1014A000002BF8D002E0054BFA681A6200F034F91C
:1014B00000E000BF1837BD4680BD00BF00800C4073
:1014C0002C800C4080B500AF01F076FA80BD00BFE3
:1014D00080B400AF034B0022C3F88420BD465DF802
:1014E000047B704700800C4080B400AF044B45F68D
:1014F0000E02C3F88420BD465DF8047B704700BF30
:1015000000800C4080B582B000AF384BD3F88430F7
:1015100003F001037B60FFF7E7FF00233B60344BE0
:101520001B6803F001033A6813433B60304B1B68B0
:1015300003F010033A6813433B602D4B1B6803F024
:1015400040033A6813433B60294B1B6803F00403D4
:101550003A6813433B60264B1B6803F480733A6878
:1015600013433B60214B3A681A62214B1B6803F41A
:101570007053B3F5805F06D0B3F5005F0ED0B3F5BE
:10158000006F16D020E000BF184BDB6A03F0800329
:10159000002BF9D0154B03225A6215E000BF134B04
:1015A000DB6A03F40073002BF9D0104B04225A625B
:1015B0000AE000BF0D4BDB6A03F00803002BF9D0F3
:1015C0000A4B02225A6200BF094B1B6803F0010359
:1015D000002B02D1054B02221A627B68002B01D03E
:1015E000FFF776FF0837BD4680BD00BF00800C4086
:1015F000CC00002080B483B000AF174B1B699BB2B6
:1016000003F03F039BB21B02FB80134B9B699BB211
:1016100003F0F0039AB2FB881343FB800E4BDB69A7
:1016200003F0F0031B099AB2FB881343FB80FB888D
:10163000B3F5827F03D3FB88B3F5017F01D101238A
:1016400000E0002303F00103DBB218460C37BD466F
:101650005DF8047B704700BFD0FF0FE080B586B017
:1016600000AF0346FB71274BDA6A274B1A60254B04
:10167000D3F8843003F001037B61FFF735FF214B82
:101680004FF420721A627B69002B01D0FFF720FF14
:101690001E4B1E4A126942F004021A61FFF7AAFFAC
:1016A0000346FB74FB7C002B11D0194B1A68194BB5
:1016B0001340BB60164BBA68C3F88020144B5B68BC
:1016C00023F04603FB60124BFA68C3F8842030BF56
:1016D000FB7C002B05D00E4BBA681A600C4BFA68E5
:1016E0005A60FB79002B02D0FFF70CFF07E0064B96
:1016F0001B6803F48063002B01D1FFF7E3FE18376A
:10170000BD4680BD00800C40CC00002000ED00E014
:1017100000E100E09CF1FD0080B400AF034BDA6A09
:10172000034B1A60BD465DF8047B704700800C4097
:10173000CC00002080B487B000AFF860B9607A6058
:10174000FB6803F10473DA00BB6813449B007B6100
:101750007B697A681A601C37BD465DF8047B704768
:1017600080B485B000AFF860B9607A60FB681A6831
:10177000BB68DB431A407B681A43FB681A60143766
:10178000BD465DF8047B704780B483B000AF03466C
:101790003960FB71FB79002B0DD0FB79012B0AD04E
:1017A000FB79022B07D0FB79032B04D0FB79042BA8
:1017B00001D0FB79052B0948FA793B68012101FA30
:1017C00003F319461346DB0013449B000344103314
:1017D00059600C37BD465DF8047B704700600040DF
:1017E00080B483B000AF03463960FB71FB79002BF6
:1017F0000DD0FB79012B0AD0FB79022B07D0FB79A6
:10180000032B04D0FB79042B01D0FB79052B09486D
:10181000FA793B68012101FA03F319461346DB000C
:1018200013449B000344103319600C37BD465DF828
:10183000047B70470060004080B586B000AFB9609F
:101840007A600246FA73BB73FB7B002B0DD0FB7BE7
:10185000012B0AD0FB7B022B07D0FB7B032B04D090
:10186000FB7B042B01D0FB7B052BBB68072B0ED821
:10187000BB689B0007229A40F97BBB689B0001FA7A
:1018800003F31A4811461A46FFF76AFF10E0BB68D7
:10189000083B7B617B699B0007229A40F97B7B694F
:1018A0009B0001FA03F3124811461A46FFF758FF4E
:1018B000BB7B1048B9681A46FFF73CFF97F8203009
:1018C0000D48B9681A46FFF735FF0C4BBA6801217D
:1018D00001FA02F2C3F81C2197F824300848B968CD
:1018E0001A46FFF727FF1837BD4680BD006100404C
:1018F00004610040086100400C610040006000404D
:101900001061004090B585B000AFB9607B600346C0
:10191000FB731346BB73FB7B002B0DD0FB7B012BB2
:101920000AD0FB7B022B07D0FB7B032B04D0FB7B75
:10193000042B01D0FB7B052BBB7B002B0DD07B68E0
:10194000002B05D0FB7B1846B968FFF749FF04E080
:10195000FB7B1846B968FFF717FFBB68072B1DD83C
:101960002B48FA7B2A4CF97B0B46DB000B449B008F
:1019700023445968BB689B000F2404FA03F3DB433C
:101980001940BC7BBB689B0004FA03F31943134660
:10199000DB0013449B000344596024E01C48FA7B9D
:1019A0001B4CF97B0B46DB000B449B0023440833A4
:1019B0001968BB6803F18043083B9B000F2404FABD
:1019C00003F3DB431940BC7BBB6803F18043083B56
:1019D0009B0004FA03F319431346DB0013449B00F6
:1019E000034408331960BB7B002B0DD17B68002BAF
:1019F00005D0FB7B1846B968FFF7F2FE04E0FB7BDD
:101A00001846B968FFF7C0FE1437BD4690BD00BF49
:101A10000060004080B483B000AF0346FB71FB79E7
:101A2000002B06D0084B084A126842F001021A60E7
:101A300005E0054B044A126822F001021A600C37D7
:101A4000BD465DF8047B704700A0084080B487B0B5
:101A500000AFF860B9607A60FB6803F10473DA00E4
:101A6000BB6813449B007B617B697A681A601C37F2
:101A7000BD465DF8047B704780B584B000AF7860E8
:101A8000184B5B68FB600020FFF7C4FFFB6823F482
:101A9000830323F01F03FB607B685B68FA681343D2
:101AA000FB607B681B7AFA681343FB607B685B7A98
:101AB000FA681343FB607B68DB68FA681343FB60DA
:101AC0007B681B8AFA681343FB60064BFA685A600E
:101AD0007B681B78002B02D00120FFF79BFF10379B
:101AE000BD4680BD00A0084080B485B000AF7860DE
:101AF0000D4B5B68FB60FB6823F48033FB607B6805
:101B0000002B08D0B3F5803F00D005E0FB6843F41C
:101B10008033FB6000E000BF034BFA685A60143763
:101B2000BD465DF8047B704700A0084080B483B0D8
:101B300000AF02460B46FA807B717B79002B06D002
:101B4000094B094A9168FA880A439A6006E0064BF5
:101B5000054A9168FA88D2430A409A600C37BD461C
:101B60005DF8047B704700BF00A0084080B584B0DA
:101B700000AFF860B9601346FB71FB68072B00F2F9
:101B8000C38001A252F823F0A91B0000D51B00005E
:101B9000011C00002D1C0000591C0000851C0000C9
:101BA000B11C0000DD1C0000BB681F2B07DCBA68FD
:101BB000FB79574811461A46FFF748FFA5E0BB6876
:101BC000203BBB60BA68FB79524811461A46FFF7C2
:101BD0003DFF9AE0BB681F2B07DCBA68FB794E48D3
:101BE00011461A46FFF732FF8FE0BB68203BBB600F
:101BF000BA68FB79494811461A46FFF727FF84E087
:101C0000BB681F2B07DCBA68FB79454811461A46AA
:101C1000FFF71CFF79E0BB68203BBB60BA68FB792B
:101C2000404811461A46FFF711FF6EE0BB681F2BB4
:101C300007DCBA68FB793C4811461A46FFF706FFF5
:101C400063E0BB68203BBB60BA68FB79374811464C
:101C50001A46FFF7FBFE58E0BB681F2B07DCBA688B
:101C6000FB79334811461A46FFF7F0FE4DE0BB689A
:101C7000203BBB60BA68FB792E4811461A46FFF735
:101C8000E5FE42E0BB681F2B07DCBA68FB792A48F7
:101C900011461A46FFF7DAFE37E0BB68203BBB600F
:101CA000BA68FB79254811461A46FFF7CFFE2CE0AB
:101CB000BB681F2B07DCBA68FB79214811461A461E
:101CC000FFF7C4FE21E0BB68203BBB60BA68FB792C
:101CD0001C4811461A46FFF7B9FE16E0BB681F2BD9
:101CE00007DCBA68FB79184811461A46FFF7AEFEC2
:101CF0000BE0BB68203BBB60BA68FB791348114618
:101D00001A46FFF7A3FE00E000BF1037BD4680BDB6
:101D100040A0084050A0084044A0084054A00840FB
:101D200048A0084058A008404CA008405CA00840CB
:101D3000CCA00840B4A00840D0A00840B8A00840FB
:101D4000D4A00840BCA00840D8A00840C0A00840CB
:101D500080B487B000AFF860B9607A60FB68072B89
:101D600000F2AC8001A252F823F000BF8D1D0000EC
:101D7000B11D0000D51D0000F91D00001D1E000052
:101D8000451E00006D1E0000951E00004E4B1B6C92
:101D90007B61BB68DB437A6913407B61BA687B680F
:101DA00013407A6913437B61474B7A691A6486E072
:101DB000454B5B6C7B61BB68DB437A6913407B619D
:101DC000BA687B6813407A6913437B613E4B7A693A
:101DD0005A6474E03C4B9B6C7B61BB68DB437A6963
:101DE00013407B61BA687B6813407A6913437B6157
:101DF000354B7A699A6462E0334BDB6C7B61BB687C
:101E0000DB437A6913407B61BA687B6813407A6967
:101E100013437B612C4B7A69DA6450E02A4BD3F888
:101E2000CC307B61BB68DB437A6913407B61BA6865
:101E30007B6813407A6913437B61234B7A69C3F84B
:101E4000CC203CE0204BD3F8D0307B61BB68DB4337
:101E50007A6913407B61BA687B6813407A691343DF
:101E60007B61194B7A69C3F8D02028E0164BD3F870
:101E7000D4307B61BB68DB437A6913407B61BA680D
:101E80007B6813407A6913437B610F4B7A69C3F80F
:101E9000D42014E00C4BD3F8D8307B61BB68DB4313
:101EA0007A6913407B61BA687B6813407A6913438F
:101EB0007B61054B7A69C3F8D82000E000BF1C376E
:101EC000BD465DF8047B704700A0084080B487B031
:101ED00000AFF860B9607A60FB68072B00F2AC8055
:101EE00001A252F823F000BF091F00002D1F0000BF
:101EF000511F0000751F0000991F0000C11F000046
:101F0000E91F0000112000004E4B1B6D7B61BB6878
:101F1000DB437A6913407B61BA687B6813407A6956
:101F200013437B61474B7A691A6586E0454B5B6DCD
:101F30007B61BB68DB437A6913407B61BA687B686D
:101F400013407A6913437B613E4B7A695A6574E0AA
:101F50003C4B9B6D7B61BB68DB437A6913407B61C3
:101F6000BA687B6813407A6913437B61354B7A69A1
:101F70009A6562E0334BDB6D7B61BB68DB437A695A
:101F800013407B61BA687B6813407A6913437B61B5
:101F90002C4B7A69DA6550E02A4BD3F8B4307B6178
:101FA000BB68DB437A6913407B61BA687B68134086
:101FB0007A6913437B61234B7A69C3F8B4203CE010
:101FC000204BD3F8B8307B61BB68DB437A691340A0
:101FD0007B61BA687B6813407A6913437B61194B54
:101FE0007A69C3F8B82028E0164BD3F8BC307B617F
:101FF000BB68DB437A6913407B61BA687B68134036
:102000007A6913437B610F4B7A69C3F8BC2014E0F3
:102010000C4BD3F8C0307B61BB68DB437A6913405B
:102020007B61BA687B6813407A6913437B61054B17
:102030007A69C3F8C02000E000BF1C37BD465DF8D8
:10204000047B704700A0084080B483B000AF786084
:10205000064B064A526822F4E0117A680A435A6035
:102060000C37BD465DF8047B704700BF00A00840F8
:1020700080B487B000AFF860B9607A60FB6803F1A4
:102080000473DA00BB6813449B007B617B697A6848
:102090001A601C37BD465DF8047B704780B485B07C
:1020A00000AF786039607B68012B05D83B6803F08E
:1020B0007F43002B00D100BF7B68002B02D0012B97
:1020C00003D008E0064BFB6002E0064BFB6000BF5C
:1020D000FB683A681A601437BD465DF8047B7047A8
:1020E000080008400C00084080B582B000AF0346ED
:1020F000FB71FB79034800211A46FFF7B9FF083747
:10210000BD4680BD0000084080B485B000AF786057
:102110007B681B78002B02D00123FB6001E00023C9
:10212000FB607B685B78002B03D0FB6843F0020305
:10213000FB607B689B78002B03D0FB6843F00403B3
:10214000FB60044BFA681A601437BD465DF8047BE7
:10215000704700BF0000084080B500AF0020FFF7C7
:10216000C3FF0120FFF7C0FF80BD00BF80B485B072
:1021700000AF7860194B5B69DBB203F00F03DBB291
:102180009B00FB73154B1B6903F0C0039B09DAB27C
:10219000FB7B1343FB737B68FA7B9A700F4B1B69C5
:1021A000DBB203F03F03DAB27B685A700B4B9B69DA
:1021B000DBB223F00F03FB73084BDB6903F0F00382
:1021C0001B09DAB2FB7B1343FB737B68FA7B1A7043
:1021D0001437BD465DF8047B704700BFD0FF0FE0A9
:1021E00080B483B000AF0346FB71FB79002B06D0AF
:1021F000084B084A126842F001021A6005E0054BDC
:10220000044A126822F001021A600C37BD465DF8DC
:10221000047B704700A0084080B483B000AF034641
:10222000FB71FB79002B03D0054B01221A6602E0FB
:10223000034B00221A660C37BD465DF8047B7047DD
:1022400000A0084080B483B000AF786000BF054BA9
:102250005A6E7B681340002BF9D10C37BD465DF8F0
:10226000047B704700A0084080B483B000AF786062
:10227000054B054A916A7A68D2430A409A620C3744
:10228000BD465DF8047B704700A0084080B500AFF4
:10229000002028490022FFF75BFD0120254900228C
:1022A000FFF756FD022023490022FFF751FD0320CE
:1022B00020490022FFF74CFD04201E490022FFF7B1
:1022C00047FD05201B490022FFF742FD0620194962
:1022D0000022FFF73DFD072016490022FFF738FDD9
:1022E0000020FF210022FFF7F1FD0120FF21002245
:1022F000FFF7ECFD0220FF210022FFF7E7FD03209E
:10230000FF210022FFF7E2FD0420FF210022FFF75A
:10231000DDFD0520FF210022FFF7D8FD0620FF216B
:102320000022FFF7D3FD0720FF210022FFF7CEFD9B
:1023300080BD00BF00F00FF080B500AF0720264938
:102340000022FFF705FD062024490022FFF700FDCB
:10235000052022490022FFF7FBFC04201F49002230
:10236000FFF7F6FC03201D490022FFF7F1FC0220D5
:102370001A490022FFF7ECFC012018490022FFF760
:10238000E7FC00204FF020410022FFF7E1FC07208E
:1023900007210022FFF79AFD062007210022FFF700
:1023A00095FD052007210022FFF790FD042007215D
:1023B0000022FFF78BFD032007210022FFF786FD97
:1023C000022007210022FFF781FD012007210022C2
:1023D000FFF77CFD00BF80BD00E00F5000E00FF074
:1023E00080B586B000AF786000237B612BE07A690E
:1023F0007B689A4202DA01233B6101E000233B61E2
:10240000144A7B69134403F588739B79FB60114A76
:102410007B69134403F588739B7ABB603B69002B8F
:1024200007D0FA68BB68104619460122FFF79EFBE9
:1024300006E0FA68BB68104619460022FFF796FBD3
:102440007B6901337B617B69032BD0DD1837BD4687
:1024500080BD00BFEC7A000080B500AF0020FFF720
:10246000BFFE0120FFF7EEFE03480021FEF7D8FB78
:10247000024B0022DA6780BD0036260000800C4047
:1024800080B584B000AF78603960104A7B6813442F
:10249000F8331B79FB600D4A7B681344F8335B7A91
:1024A000BB603B68002B07D0FA68BB681046194632
:1024B0000122FFF75BFB06E0FA68BB68104619468D
:1024C0000022FFF753FB1037BD4680BDEC7A0000B9
:1024D00080B582B000AF0346FB7125480121FEF7AD
:1024E0009FFB24480321FEF7A1FD23484021FEF76E
:1024F0007FFA0120FEF768FF20480121FEF790FBDC
:102500004FF0FF30FFF7B0FE1D48FFF7B5FA082087
:102510000121FFF70BFB10200121FFF707FB8020B3
:102520000121FFF703FB4FF480700121FFF7FEFA52
:102530004FF400700121FFF7F9FAFB79002B0DD061
:102540004FF44020FFF780FD4FF48030FFF7CCFAC6
:102550000C4B0C4AD26F42F00802DA67FFF796FE86
:102560004FF0FF30FFF76EFE0837BD4680BD00BF5D
:10257000004302000200180060002400003626001C
:10258000C87D000000800C4080B58AB000AF786044
:102590007A6842F20E739A4202DD42F20F737B6058
:1025A0007B6813F57A7F01DC3C4B7B607B68002BFA
:1025B00006DA786805F030FA78600123BB6101E043
:1025C0000023BB614FF0FF30FFF73CFE0120FFF717
:1025D00023FE00F06BF80123FB6100233B6254E013
:1025E0007A68FB6992FBF3F12D4B83FB01239A1070
:1025F000CB17D21A13469B0013445B00CA1A13462A
:10260000FB82BB69012B04D13B6A032B01D1102350
:10261000FB82FA8A234B33F81230BB8200237B62A1
:1026200027E021493A6A1346DB009B1A5B00CA186F
:102630007B6A1344C033DB7A3B611B493A6A134619
:10264000DB009B1A5B00CA187B6A1344C0331B79FA
:10265000FB60BA8A7B6A42FA03F303F00103002BA2
:1026600004D0F86839690122FFF780FA7B6A0133E8
:102670007B627B6A062BD4DDFA6913469B00134408
:102680005B00FB613B6A01333B623B6A032BA7DDC6
:102690000020FFF7C1FD2837BD4680BD19FCFFFFB4
:1026A00067666666A47D0000EC7A000080B500AF26
:1026B000012078210022FFF709FC02207821002266
:1026C000FFF704FC032078210022FFF7FFFB042022
:1026D00078210022FFF7FAFB052078210022FFF77E
:1026E000F5FB062078210022FFF7F0FB0720782178
:1026F0000022FFF7EBFB00BF80BD00BF80B584B0B8
:1027000000AF03463960FB710023FB600023BB6010
:10271000FB79102B79D801A252F823F06127000031
:102720006B270000752700007F2700008927000025
:10273000932700009D270000A7270000B127000075
:10274000BB270000C5270000CF270000D9270000C5
:10275000E3270000ED270000F72700000128000014
:102760000123FB600C23BB604FE00023FB602023B0
:10277000BB604AE00323FB602723BB6045E00223E4
:10278000FB600C23BB6040E00023FB601C23BB60AC
:102790003BE00323FB600C23BB6036E00423FB60BB
:1027A0000C23BB6031E00023FB601E23BB602CE0E8
:1027B0000523FB602723BB6027E00023FB60222367
:1027C000BB6022E00023FB602323BB601DE00723E6
:1027D000FB600C23BB6018E00523FB600C23BB608F
:1027E00013E00623FB600C23BB600EE00723FB60B5
:1027F0001D23BB6009E00723FB601F23BB6004E0CF
:102800000423FB602723BB6000BF3B68002B05D07F
:10281000F868B9680122FFF7A9F904E0F868B96817
:102820000022FFF7A3F91037BD4680BD80B58AB0FE
:1028300000AF7860786805F044F90346BB61002377
:102840003B624FF0FF30FFF7FDFC0120FFF7E4FC97
:10285000FFF772FD00233B6246E03A6ABB699A4289
:1028600003DA7B681B787B6201E020237B627B6A52
:10287000203B7B62214B7A6A33F81230FB820023C3
:10288000FB6128E01E493A6A1346DB009B1A9B0055
:10289000CA18FB69134408339B793B6118493A6AAB
:1028A0001346DB009B1A9B00FA6913440B441B7808
:1028B000FB60FA8AFB6942FA03F303F00103002B81
:1028C00006D0FA683B69104619460122FFF74EF917
:1028D000FB690133FB61FB690D2BD3DD7B680133A1
:1028E0007B603B6A01333B623B6A062BB5DD00200F
:1028F000FFF792FC2837BD4680BD00BFEC7C00008E
:10290000EC7A0000074880470749084A084B9B1AA1
:1029100040F30580043BC858D0503FF7FBAF054853
:1029200000470000192B00006C810000000000200F
:10293000B000002055010000FEE7FEE7FEE7FEE7DD
:10294000FEE7FEE7FEE7FEE7FEE7FEE7FEE7FEE75F
:10295000FEE7FEE7FEE7FEE7FEE7FEE7FEE7FEE74F
:10296000FEE7FEE7FEE7FEE7FEE7FEE7FEE7FEE73F
:10297000FEE7FEE7FEE7FEE7FEE7FEE7FEE7FEE72F
:10298000FEE7FEE7FEE7FEE7FEE7FEE7FEE7FEE71F
:10299000FEE7FEE7FEE7FEE7FEE700BF80B400AF1C
:1029A000044BDB6C1B0EDBB21846BD465DF8047BA6
:1029B000704700BFB081E00F80B582B000AF00F07B
:1029C0001FF87860074B5B6803F00F037A6822FA00
:1029D00003F37B60044B7A681A607B6818460837FB
:1029E000BD4680BD00800C40EC00002080B400AFEC
:1029F000024B1846BD465DF8047B7047006CDC0254
:102A000080B582B000AF334BDB6A03F47053B3F58B
:102A1000805F0AD0B3F5005F03D0B3F5006F08D034
:102A20000BE02D4B1B687B6047E04FF400437B605D
:102A300043E02A4B1B687B603FE0264BDB6803F4D6
:102A4000E063B3F5007F1BD0B3F5007F05D8002B02
:102A500024D0B3F5807F16D02BE0B3F5806F09D07A
:102A6000B3F5A06F03D0B3F5407F06D021E01C4B37
:102A70007B6021E01B4B7B601EE01B4B7B601BE0FF
:102A80001A4B7B6018E0FFF789FF0346122B02D92F
:102A9000174B7B6010E0174B7B600DE0FFF77EFF6C
:102AA0000346122B02D9144B7B6005E0134B7B606D
:102AB00002E000237B6000BF00BF064B1B6803F4ED
:102AC000E0339B0B01337A68B2FBF3F31846083707
:102AD000BD4680BD00800C400400002000000020A6
:102AE000003FAB01406F4001809FD500C0D8A700D8
:102AF00040B56400C0CF6A00804F120040420F0012
:102B000080B400AF034B1B681846BD465DF8047BDC
:102B1000704700BF0000002080B400AFBD465DF8E4
:102B2000047B704780B400AF4FF400431846BD46A5
:102B30005DF8047B704700BF80B400AF4FF47A7338
:102B40001846BD465DF8047B704700BF80B400AFF7
:102B5000034B1B681846BD465DF8047B704700BFF9
:102B60000400002080B483B000AF78600B46FB7097
:102B7000FA787B685A600C37BD465DF8047B704775
:102B800080B483B000AF7860034B7A689A610C37E9
:102B9000BD465DF8047B70470000084080B483B0F8
:102BA00000AF7860054B054AD1697A680A43DA615B
:102BB0000C37BD465DF8047B704700BF000008403D
:102BC00080B500AF0A4B01221A600A4B00221A603E
:102BD000FFF7C2FA084B1B6801201946FFF75EFA9F
:102BE0000420FFF7CDFF0420FFF7D8FF80BD00BF12
:102BF0002C000020100200200C00002080B500AF47
:102C0000244B1B78DBB2002B42D0234B1B78DBB26A
:102C1000002B0CD0214B1B68184600F047FB2048C6
:102C20000121FFF79FFF1C4B00221A702DE01D4B66
:102C30001B78DBB21A46194B19681B4B1B6899426B
:102C4000ACBF00230123DBB21340002B09D0134B90
:102C50001B68184600F02AFB11480121FFF782FF8C
:102C600013E0104B1B78DBB2002B0ED04FF040204E
:102C700002F05CFC00F01CF8064B00221A70074BB7
:102C800000221A60094B03221A60064B00221A70B8
:102C900080BD00BFD1000020D00000201002002025
:102CA00000200040D2000020180000202C0000204E
:102CB000B0B586B000AF02233B7050237B704E4B03
:102CC0001B88A7F803304C4B5B88184600F0A0F82F
:102CD00003469BB2A7F80530484B1B78DBB2FB607C
:102CE000FB68DBB25B00DAB2454B1B68DBB2134416
:102CF000DBB2BB700023FB7502233B61414A3B6999
:102D000013441B78DBB2002B20D0FB7D184604F067
:102D1000BFF804460D463B69023B184604F0B8F87C
:102D200002460B464FF000004FF0804102F072FE69
:102D300002460B462046294603F05EFF02460B463C
:102D40001046194604F0A4FB0346FB753B690133AA
:102D50003B612D4B1B683A699A42CFDBFB7DFB71CF
:102D6000254B9B883B81244B1A8847F265439A4246
:102D700003D9264B04221A6020E01F4B1A8846F61E
:102D800090539A4203D9214B03221A6016E01A4B42
:102D90001A8846F2BD639A4203D91C4B02221A607C
:102DA0000CE0154B1A8845F616139A4203D9174BB7
:102DB00001221A6002E0154B00221A600F4B1B78AB
:102DC000DBB2002B05D03B46072019460A2200F053
:102DD00007FFB7F803309AB2B7F805309BB29BB241
:102DE0001BB21046194600F0B9FA0246044B1A60AD
:102DF0001837BD46B0BD00BFF0000020E400002041
:102E000008000020D800002018000020D400002076
:102E100080B586B000AF0346FB801D4B1B6803F4F2
:102E20007F031B0C184604F009FC03467B61184B1A
:102E3000DB681B0D184604F001FC03463B61154B93
:102E4000FB60FB88DB089BB2184604F0FBFB0346E3
:102E50003869194604F040FB03461846F96804F047
:102E6000F9FC03467869194604F036FB0346184618
:102E7000094904F03BFC0346184604F087FD03466D
:102E80007B81B7F90A3018461837BD4680BD00BFB0
:102E9000B081E00F9A99C9C00000C84280B487B0E1
:102EA00000AFF860B9607A60FB6803F10473DA0080
:102EB000BB6813449B007B617B697A681A601C378E
:102EC000BD465DF8047B704780B400AF054B054AF2
:102ED000126922F004021A6130BFBD465DF8047B1E
:102EE000704700BF00ED00E080B483B000AF7860B1
:102EF000034B7A681A630C37BD465DF8047B704754
:102F00000010084080B483B000AF7860054B054ADC
:102F1000516B7A68D2430A405A630C37BD465DF85C
:102F2000047B70470010084080B483B000AF786025
:102F3000054B054A516B7A680A435A630C37BD4604
:102F40005DF8047B704700BF0010084080B582B078
:102F500000AF0346FB71FB79002B05D00E4B1B68BD
:102F600003F00303002B05D1FB7983F00103DBB2EF
:102F7000002B00D000BFFB79002B05D006480321B1
:102F80000022FFF78BFF04E0034803210122FFF733
:102F900085FF0837BD4680BD0010084080B400AFF3
:102FA000034B9B681846BD465DF8047B704700BF25
:102FB0000010084080B500AF074B01221A70FFF7E0
:102FC000EDFF0246054B1A600220FFF78DFF02203D
:102FD000FFF798FF80BD00BF1402002018020020F8
:102FE00080B584B000AF0346FB712A4BDB69002B30
:102FF0000AD1294B5B69002B06D1284BDB6C002BD7
:1030000002D1FB79002B01D0012300E00023FB73E8
:10301000FB7B03F00103FB73214B00221A7002F0CB
:1030200075FA204B1B680020194602F05FFA022057
:10303000FFF75AFF0220FFF777FF0120FFF786FF17
:10304000FB7B002B02D0FFF73FFF02E00120FEF7E1
:1030500005FB0020FFF77AFF114B1B78DBB283F0F2
:103060000103DBB2002B01D0FFF7A4FF0E4B1B685E
:10307000184604F0E3FA034618460C4904F0EAFB4C
:103080000346184604F0A8FC034618461037BD4610
:1030900080BD00BF000008400020004000E000406C
:1030A000140200201C0000201802002000007A44B6
:1030B00080B483B000AF0346FB71084B97F907203B
:1030C0005209F97901F01F01012000FA01F143F8DA
:1030D00022100C37BD465DF8047B704700E100E02C
:1030E00080B483B000AF0346FB71094B97F907200A
:1030F0005209F97901F01F01012000FA01F1603253
:1031000043F822100C37BD465DF8047B704700BFC2
:1031100000E100E080B483B000AF03463960FB718A
:1031200097F90730002B0BDA0D49FB7903F00F03F9
:10313000043B3A68D2B25201D2B20B441A7609E08B
:10314000084997F907303A68D2B25201D2B20B441B
:1031500083F800230C37BD465DF8047B704700BF41
:1031600000ED00E000E100E080B483B000AF7860E3
:10317000044B7A68C3F81C210C37BD465DF8047B0C
:10318000704700BF0060004080B483B000AF78603B
:10319000064B064AD2F810117A680A43C3F8102188
:1031A0000C37BD465DF8047B704700BF00600040EF
:1031B00080B584B002AF39600146F971BA717B7194
:1031C000FA79BB7979790091397C01911046396897
:1031D0003A68FEF731FB0837BD4680BD80B483B046
:1031E00000AF786039607B683A681A620C37BD4678
:1031F0005DF8047B704700BF80B483B000AF786097
:1032000039607B685A693B681A437B685A610C379E
:10321000BD465DF8047B704780B483B000AF786032
:10322000034B7A689A610C37BD465DF8047B7047A2
:103230000000084080B582B000AF7860034879682C
:1032400002F08AFB0837BD4680BD00BF0080084001
:1032500080B483B000AF7860034B7A681A630C3790
:10326000BD465DF8047B70470010084080B582B011
:1032700000AF0C4B1B687B603B461846FEF776FFA1
:103280007B681B0E0F2B0AD93B78032B07D1064B0B
:10329000054A126822F0500242F010021A60083704
:1032A000BD4680BDFC81E00FC0800C4080B588B079
:1032B00000AF786024480121FDF7B2FC0023BB7603
:1032C0000B233B7600237B760020FDF7F9F80346BD
:1032D000FB7600233B7700237B770323FB730823D4
:1032E0007B730023FB74194A7B6813441B78DBB2A1
:1032F0003B74174A7B6813441B78DBB27B74154A16
:103300007B6813441B78DBB2BB7307F118031248C8
:103310001946FCF7E9FF07F10C030F481946FDF7C2
:1033200027F80D480121FFF759FF0B480121FFF74E
:1033300063FF0720FFF7BCFE07200421FFF7EAFE2A
:103340002037BD4680BD00BF0002050010000020F0
:10335000D8000020140000200020004080B582B07A
:1033600000AF02460B46FA80BB80FA8847F21A6328
:103370009A4203D92E4B00221A7007E0FA8847F2CE
:10338000AF239A4202D82A4B01221A70FA8845F6D6
:10339000E9739A4203D8274B01221A7011E0254B9A
:1033A0001B78DBB21A46F98846F2BD63994294BF96
:1033B00000230123DBB21340002B02D01D4B00225F
:1033C0001A70B7F9042041F288339A4207DD0220CF
:1033D000072108220023FEF795FA002323E0B7F91E
:1033E0000430B3F5FA7F07DA022007210822002310
:1033F000FEF788FA002316E00D4B1B78DBB283F052
:103400000103DBB2002B07D0022007210822002392
:10341000FEF778FA002306E00220072108220123A4
:10342000FEF770FA012318460837BD4680BD00BF7D
:1034300020000020DC000020B0B588B002AF354885
:103440000121FDF7EDFB344B3C461D460FCD0FC46B
:1034500095E8030084E8030005233B700023FB810B
:103460004FF480533B8205237B734FF4E133BB6001
:10347000042000210A220123FEF744FA042001213E
:1034800001220023FEF73EFA022008210122012337
:10349000FEF738FA022009210A220123FEF732FA48
:1034A00000200E210A220123FEF72CFA3B461B487E
:1034B000194602F067F9194B184A526D22F4E0627E
:1034C00042F480725A65154B144A526D42F0030261
:1034D0005A65002300930220082101220123FFF7EF
:1034E00067FE1420FFF7E4FD14200121FFF712FE10
:1034F0004FF48070FFF738FE4FF48070FFF744FE02
:103500000120FFF7D5FD01200321FFF703FE183747
:10351000BD46B0BD00320400F47D000000E0004074
:1035200080B500AF05480121FDF77AFB0220072195
:1035300008220123FEF7E6F980BD00BF00D2040097
:1035400080B582B002AF0120092101220023FEF7DD
:10355000D9F901200A2101220023FEF7D3F9012322
:1035600000930120092100220123FFF721FE0123FE
:10357000009301200A2100220123FFF719FE0B20EE
:10358000FFF7AEFD0B20FFF793FD0B200421FFF7A3
:10359000C1FDBD4680BD00BF80B582B000AF1248FE
:1035A0000121FDF73DFB114A3B1D118892781980DE
:1035B0009A700023BB7100237B7101233B713B1D7B
:1035C0001846FEF7A1FD0620FFF726FE1E20FFF796
:1035D00087FD1E20FFF76CFD1E200221FFF79AFDDC
:1035E0000837BD4680BD00BF601610001C7E00007D
:1035F000B0B586B000AF174B3C1D1D460FCD0FC4B4
:103600002B6823600223FB604FF440533B8100236F
:103610007B750023BB7100233B7100233B610023BA
:10362000BB7502237B7100233B753B1D184601F0DF
:10363000E9FE0220FFF70CFE1F20FFF751FD1F20BF
:10364000FFF736FD1E200421FFF764FD1837BD4645
:10365000B0BD00BF207E000080B584B000AF074A37
:103660003B1D1068516803C3127A1A703B1D18463F
:10367000FFF7E0FD1037BD4680BD00BF347E00007F
:1036800080B500AFFFF7F2FD0220002102F006F83E
:103690000A480121FDF7C4FA0320FDF723FE08487C
:1036A0000121FDF7BDFA07480321FDF7BFFC052006
:1036B00001210122FDF7A6FE80BD00BF408104006C
:1036C000004302000200180080B483B000AF7860AD
:1036D000034B7A689A610C37BD465DF8047B7047EE
:1036E0000000084080B483B000AF7860054B054A05
:1036F000D1697A68D2430A40DA610C37BD465DF879
:10370000047B70470000084080B483B000AF78604D
:10371000054B054AD1697A680A43DA610C37BD4620
:103720005DF8047B704700BF0000084080B500AF23
:10373000084800214FF4867204F0BBF90648074997
:103740008022074B01F026F84FF40040054900F0B5
:1037500019F880BD040100201D38000090010020F0
:10376000013800007D3A000080B500AF034B032212
:103770001A60034B1B68984780BD00BF34000020CF
:103780000401002080B582B000AF03463960FB80A1
:103790000A4B01221A600A4B3A681A60FEF7DCFCF9
:1037A000FB8800201946FEF779FC0220FFF78CFF0A
:1037B0000220FFF7A9FF0837BD4680BD3400002076
:1037C0000401002080B500AF0220FFF78BFF034B00
:1037D00003221A60024B00221A6080BD34000020D0
:1037E0000401002080B483B000AF7860034B7A6896
:1037F0005A600C37BD465DF8047B70470401002019
:1038000080B582B000AF0346FB71034B5B689847FD
:103810000837BD4680BD00BF0401002080B588B0D8
:1038200000AF02460B46FA71BB71FB790D3B192BB9
:1038300000F2078101A252F823F000BF433A0000D2
:10384000433A0000A5380000433A0000433A000024
:10385000433A0000433A0000433A0000433A000074
:10386000433A0000433A0000433A00008139000027
:10387000433A0000433A0000433A0000433A000054
:10388000433A0000433A0000433A0000433A000044
:10389000433A0000433A0000433A0000273A000050
:1038A000433A0000694BFB61FB691B68082B26D07B
:1038B000082B06D8022B1AD0042B1CD0012B0DD0BC
:1038C0003BE0202B23D0202B02D8102B1BD034E040
:1038D000802B28D0B3F5807F2BD02EE040F6CD4052
:1038E0005B49FFF74FFF5B4B01221A6025E0594B04
:1038F00002221A6021E0574B03221A601DE0554B4B
:1039000004221A6019E0534B05221A6015E040F6B4
:10391000CD405149FFF736FF4E4B06221A604F4B00
:1039200001221A7009E04B4B07221A60FFF748F991
:1039300003E0484B08221A6000BFFB691B79082B83
:103940001CD801A252F823F07D3900006D39000027
:103950007D3900007D3900007D3900007D3900008F
:10396000753900007D3900007D3900003B4B002295
:103970001A7004E0394B00221A7000E000BF61E0C9
:10398000324BBB61BB6915337B617B691B78FB7470
:10399000FB7C0B2B45D801A252F823F0CD39000057
:1039A000013A0000233A0000233A0000233A0000C5
:1039B000233A0000233A0000233A0000233A000093
:1039C000233A0000233A0000073A000003200821B0
:1039D00008220023FDF796FF214B01221A60214B9C
:1039E00000221A60FEF7B8FB01204FF47A71FEF74F
:1039F00055FB0420FFF768FE0420FFF785FE11E069
:103A0000FFF7DEF80EE07B6901331B781A467B690D
:103A100002331B781B029BB213449AB2124B1A80DA
:103A200000E000BF0EE0114BFB60FB689B78012BB0
:103A300003D1084B0A221A6004E0064B09221A60DF
:103A400000E000BF2037BD4680BD00BF90010020D0
:103A5000B13A0000E0000020E53A0000E400002058
:103A60002C0000201002002028000020100100205F
:103A700080B500AF00F0B6FE80BD00BF80B500AFDE
:103A80000548FFF7AFFE054800F01EFF4FF48040E9
:103A90000349FFF777FE80BDA53A00001001002022
:103AA000713A000080B500AFFFF78CFE80BD00BF0B
:103AB00080B500AF0548FFF795FE054800F0A0FE71
:103AC0004FF480400349FFF75DFE80BDD93A000006
:103AD00010010020713A000080B500AFFFF772FEC0
:103AE00080BD00BF80B500AF0748FFF77BFE074BE6
:103AF000DB7A1846064900F0C3FF4FF480400549C1
:103B0000FFF740FE80BD00BF193B0000040100200C
:103B100010010020713A000080B500AFFFF752FE9F
:103B200040F6CD400149FFF72DFE80BD313B00003E
:103B300080B500AF0648FFF755FE0020054900F0AC
:103B400027FF4FF480400449FFF71CFE80BD00BFF3
:103B50005D3B000010010020713A000080B582B08A
:103B600000AFFFF72FFE094B7B607B685A78084B4C
:103B7000DA727B685A78074B1A7040F6CD400649D6
:103B8000FFF700FE0837BD4680BD00BF10010020D2
:103B900004010020DD0000209D3B000080B500AF47
:103BA0000848FFF71FFE084BDB7A18464FF2B901B1
:103BB000064A00F0CFFF4FF480400549FFF7E2FDD1
:103BC00080BD00BFD53B0000040100201001002093
:103BD000713A000080B500AFFFF7F4FD80BD00BF73
:103BE0002DE9F04391B006AF396013460246FA71F1
:103BF000BB716B461E46BB793B62BB7901331A46EB
:103C00004FF000034FEAC30949EA52794FEAC2086C
:103C1000BB7901331A464FF00003DD0045EA5275C7
:103C2000D400BB7901330733DB08DB00ADEB030DB8
:103C300006AB0033FB6100237B6207E0FA697B6A15
:103C4000134400221A707B6A01337B627B6A002B6B
:103C5000F4DBFB69FA791A70FB695A1CBB791046D0
:103C600039681A4603F01CFF07F10C031846154982
:103C7000102203F015FF1448FFF7B4FD134B1B7817
:103C8000DAB2F869BB790133D9B207F10C03002429
:103C900000944FF6FE740194029003910C49049134
:103CA000104619464FF2B902002300F0C5FF4FF449
:103CB00080400849FFF766FDB5462C37BD46BDE894
:103CC000F08300BF407E0000D93C0000DD000020F2
:103CD00010010020713A000080B582B000AFFFF7FC
:103CE00071FD084B7B607B681B783B603B68002B59
:103CF00004DD40F6CD400449FFF744FD0837BD46DA
:103D000080BD00BF10010020E53A000080B485B0FE
:103D100000AF786039607B6803F10473DA003B68B8
:103D200013449B00FB60FB681B6818461437BD46B4
:103D30005DF8047B704700BF80B483B000AF78604B
:103D4000044B7A68C3F81C210C37BD465DF8047B30
:103D5000704700BF0060004080B582B000AF0346EE
:103D60003960FB71FB79002B0DD0FB79012B0AD058
:103D7000FB79022B07D0FB79032B04D0FB79042BB2
:103D800001D0FB79052BFA791346DB0013449B0025
:103D90001C3303F1804303F5C04318463968FFF72D
:103DA000B5FF034618460837BD4680BD80B483B0D2
:103DB00000AF03463960FB71FB79002B0DD0FB7916
:103DC000012B0AD0FB79022B07D0FB79032B04D0FF
:103DD000FB79042B01D0FB79052B0948FA793B6864
:103DE000012101FA03F319461346DB0013449B003B
:103DF0000344103359600C37BD465DF8047B7047AF
:103E00000060004080B483B000AF03463960FB71AE
:103E1000FB79002B0DD0FB79012B0AD0FB79022B0B
:103E200007D0FB79032B04D0FB79042B01D0FB795D
:103E3000052B0948FA793B68012101FA03F3194679
:103E40001346DB0013449B000344103319600C3706
:103E5000BD465DF8047B70470060004080B483B0CD
:103E600000AF78607B685B6A18460C37BD465DF82A
:103E7000047B704780B483B000AF786039607B68A2
:103E80005A693B68DB431A407B685A610C37BD4670
:103E90005DF8047B704700BF80B483B000AF7860EA
:103EA00039607B683A689A640C37BD465DF8047BDC
:103EB000704700BF80B483B000AF786039607B6822
:103EC000DA6C3B68DB431A407B68DA640C37BD462A
:103ED0005DF8047B704700BF80B483B000AF7860AA
:103EE00039607B68DA6C3B681A437B68DA640C37AC
:103EF000BD465DF8047B704780B483B000AF786046
:103F00007B68DB69DBB218460C37BD465DF8047B85
:103F1000704700BF80B483B000AF7860034B7A680D
:103F20009A610C37BD465DF8047B7047000008407D
:103F300080B483B000AF7860054B054AD1697A68D8
:103F4000D2430A40DA610C37BD465DF8047B704706
:103F50000000084098B500AF0F4B1B78DBB2002B78
:103F600018D00E480121FFF785FF0D4B1C680B4848
:103F7000FFF774FF03469AB20A4B23F81420074850
:103F8000FCF774FA084B01221A70054B1B685A1C87
:103F9000034B1A6098BD00BFD100002000200040F4
:103FA00010020020F0000020D200002080B582B076
:103FB00000AF0848FFF7A0FF0346FB71FB791846E6
:103FC00000F0BAFA03480421FFF766FF0837BD4640
:103FD00080BD00BF00E0004080B500AF224BD3F8A9
:103FE0001421214BD3F810311340B3F5807F2AD12F
:103FF00002200821FFF7B0FE0346002B0FD102205C
:104000000921FFF7D3FE194B01221A601848042139
:10401000FFF742FF16480421FFF75EFF0EE0022083
:104020000921FFF7EFFE114B03221A60104804210B
:10403000FFF740FF0E480421FFF72EFF4FF480707A
:10404000FFF77AFE0FE0084BD3F81421064BD3F8A4
:1040500010311340B3F5806F05D1FEF7B1FD4FF479
:104060008060FFF769FE80BD0060004030000020E6
:1040700000E0004080B500AF4FF40070FFF75CFE39
:10408000024B1B68184600F037F880BDE80000209E
:1040900080B500AF154B1A69144BDB691340022B36
:1040A00008D10220FFF744FF0220FFF733FFFFF79C
:1040B0005BFB1AE00D4B1A690C4BDB691340042BB8
:1040C00013D10420FFF734FF0420FFF723FF084B30
:1040D00001221A70074B01221A70032008210122C5
:1040E0000023FDF70FFCFEF789FD80BD00000840AE
:1040F000D1000020D000002080B582B000AF7860F1
:10410000064B7A681A60064B00221A6000F064F8C9
:10411000044B01221A700837BD4680BD20020020E2
:104120001C020020E500002080B586B002AFF860D8
:10413000B9607A603B60244B1B78DBB2002B3BD02C
:10414000224B1B68FA689A4209D9214B1A68FB680E
:104150001A441E4B1B68D21A1D4B1A6013E01B4BEE
:104160001B68FA689A420ED2194B1A68FB68D1187C
:10417000BA6813461B019B1A9B00CA18134B1B6895
:10418000D21A134B1A60114BFA681A60114B1B6854
:104190001A460F4B1B689A4209D93B7E3A6A009235
:1041A000786839681A46FB6900F026F804E000F0E8
:1041B0001BF8054B00221A70034B1B78DBB2184624
:1041C0001037BD4680BD00BFE50000202002002062
:1041D0001C0200202400002080B500AF0020FEF764
:1041E00077F9FEF753F880BD80B500AFFEF74EF8C3
:1041F000FEF732F980BD00BF80B586B000AFF86031
:10420000B9603B601346FB7100237B61F868FEF7E1
:10421000BBF9FB7901201946FEF770FA386AFEF700
:10422000DFF80FE0BA687B699A4204D1786901210E
:10423000FEF726F903E078690021FEF721F97B6992
:1042400001337B617B69042BECDD3B68013B0A2B6E
:1042500044D801A252F823F0854200008D420000AC
:10426000954200009D420000A5420000AD420000C2
:10427000B5420000BD420000C5420000CD42000032
:10428000D54200001748FEF7D1FA28E01648FEF79D
:10429000CDFA24E01548FEF7C9FA20E01448FEF7ED
:1042A000C5FA1CE01348FEF7C1FA18E01248FEF701
:1042B000BDFA14E01148FEF7B9FA10E01048FEF715
:1042C000B5FA0CE00F48FEF7B1FA08E00E48FEF729
:1042D000ADFA04E00D48FEF7A9FA00E000BF183778
:1042E000BD4680BD507E0000587E0000607E00000C
:1042F000687E0000707E0000787E0000807E0000F6
:10430000887E0000907E0000987E0000A07E000065
:1043100080B500AF014801F0FDFA80BD0080084083
:10432000F0B587B004AFFFF7ABF9FFF7F9F8FFF787
:1043300083F8FFF705F9FFF72FF9FFF759F9FFF7B2
:104340008BF9FFF7F3F900237B60314B1B889BB29D
:104350001A4613461B019B1A9B001A462D4B1B68DD
:104360009A4204D8FEF72CFC2A4B00221A602A4BF2
:104370001B78DBB2002B01D0FEF740FC274B1A68FC
:10438000274B1B689A4202DA244B1B6801E0244B3E
:104390001B68244A1360244B1A68224B1B689A42FC
:1043A00002DA214B1B6801E01E4B1B681F4A136099
:1043B000184B1868164B1B889BB219467A681B4B22
:1043C0001B681B4C2478E6B21A4C25681A4C2468EA
:1043D000009601950294FFF7A7FE0346FB70FB7859
:1043E0001846FEF7FDFD02460A4B1B681A44094BAE
:1043F0001A60FFF78DFF7A6842F20F739A4202D972
:1044000000237B60A1E77B6801337B609DE700BFF1
:1044100028000020E8000020D1000020300000200B
:1044200034000020380000202C0000203C00002038
:10443000E4000020E0000020D400002080B483B01D
:1044400000AF78600B467B807B881B0A9BB2DAB298
:104450007B681A707B6801337A88D2B21A700C3785
:10446000BD465DF8047B704780B483B000AF7860D0
:1044700039607B6800221A807B681A883B680133A8
:104480001B7813439AB27B681A807B681B889AB2A8
:104490003B681B781B029BB213439BB29AB27B68AA
:1044A0001A800C37BD465DF8047B704780B483B03A
:1044B00000AF786039607B6800221A607B681A68F8
:1044C0003B6803331B781A437B681A607B681A6861
:1044D0003B6802331B781B021A437B681A607B68B7
:1044E0001A683B6801331B781B041A437B681A6007
:1044F0007B681A683B681B781B061A437B681A6046
:104500000C37BD465DF8047B704700BF80B582B0B4
:1045100000AF786006480021902203F0CAFA044BED
:104520007A681A60034800F0ADFE0837BD4680BDCA
:10453000240200203945000080B582B000AF034658
:10454000FB7100F047FD294B5B7983F00103DBB27F
:10455000002B10D0254B1B797E2B0CD1FB797E2BA9
:1045600009D0224B01225A7100F098F8FB791846C5
:1045700000F0A4F831E01D4B5B79002B13D0FB79E0
:104580007E2B10D0FB79184600F098F8174B9B7AD9
:104590000133802B06DD154B00229A72134B00224B
:1045A0005A711AE019E0114B5B79002B15D0FB7999
:1045B0007E2B12D100F0B6F80C4B9B7A002B09D061
:1045C0000A4B1B68094A927A094811469847074BDB
:1045D00000229A72054B00225A71044BFA791A7123
:1045E00000F0FEFC0837BD4680BD00BF240200205D
:1045F0002F02002080B500AF044B4FF6FF72A3F8E6
:104600008C207E2000F04CFE80BD00BF24020020E4
:1046100080B582B000AF0346FB71104BB3F88C201D
:10462000FB791046194600F099F803461A460B4BE1
:10463000A3F88C20FB797E2B02D0FB797D2B06D151
:104640007D2000F02DFEFB7983F02003FB71FB79C8
:10465000184600F025FE0837BD4680BD2402002024
:1046600080B582B000AF0C4BB3F88C30DB43FB80DD
:10467000FB88DBB21846FFF7CBFFFB881B0A9BB217
:10468000DBB21846FFF7C4FF7E2000F009FE00F001
:1046900017FE0837BD4680BD2402002080B400AF5D
:1046A000054B00229A72044B4FF6FF721A81BD46E9
:1046B0005DF8047B704700BF2402002080B582B003
:1046C00000AF0346FB71FB797D2B03D1144B012214
:1046D0009A7121E0124B9B79002B06D0FB7983F075
:1046E0002003FB710E4B00229A710D4B9B7A0C4AF2
:1046F0001344FA79DA720A4B9B7A0133DAB2084B27
:104700009A72074B1A89FB791046194600F026F871
:1047100003461A46024B1A810837BD4680BD00BFCA
:104720002402002080B400AF0B4B1A894FF2B8036B
:104730009A4206D1084B9B7A023BDAB2064B9A7238
:1047400002E0054B00229A72034B00229A71BD468B
:104750005DF8047B704700BF2402002080B483B062
:1047600000AF02460B46FA807B71FB881B0A9AB2A7
:10477000F9887B794B40D9B2054B33F8113053405F
:104780009BB218460C37BD465DF8047B704700BFEE
:10479000A87E000080B584B000AFF860B9603B60CF
:1047A0001346FB710D480021982203F082F90B4B50
:1047B000FA68C3F88C20094BBA68C3F89020074BFD
:1047C000FA7983F89420054B3A68C3F884200448AA
:1047D00000F00CFC1037BD4680BD00BFB4020020C5
:1047E0005D4D000080B500AF00F0F4FB034B0022EC
:1047F00083F8802000F0F4FB80BD00BFB4020020ED
:1048000080B586B002AF786000F0E4FB154B93F8FA
:104810008030002B03D000F0E3FB01231EE0114B9E
:10482000062283F881200F4B7A68C3F88820002382
:10483000FB73FB7B0C4A009206201946094A0023B1
:1048400000F0F0FB0346BB73BB7B002B03D1054B91
:10485000012283F8802000F0C3FBBB7B1846103791
:10486000BD4680BDB40200206D48000080B584B014
:1048700000AF3A600246FA710A46BA717B71114B79
:1048800093F8803083F00103DBB2002B05D10D4B90
:1048900093F88130FA799A4200D010E0094BD3F8AE
:1048A0008830FB60FB68BA791A70064BD3F8843005
:1048B000FA7910469847034B002283F8802010377E
:1048C000BD4680BDB402002080B586B002AF7860DE
:1048D00000F080FB154B93F88030002B03D000F0E4
:1048E0007FFB01231EE0114B082283F881200F4B30
:1048F0007A68C3F888200023FB73FB7B0C4A009284
:1049000008201946094A002300F08CFB0346BB73BC
:10491000BB7B002B03D1054B012283F8802000F0E4
:104920005FFBBB7B18461037BD4680BDB40200203C
:104930003549000080B584B000AF3A600246FA7194
:104940000A46BA717B71114B93F8803083F00103F2
:10495000DBB2002B05D10D4B93F88130FA799A42E6
:1049600000D010E0094BD3F88830FB60FB68BA79BF
:104970001A70064BD3F88430FA7910469847034BE7
:10498000002283F880201037BD4680BDB40200208D
:1049900080B586B002AF03463960FB7100F01AFBA8
:1049A000174B93F88030002B03D000F019FB012344
:1049B00021E0134B152283F88120114B3A68C3F88C
:1049C00088200023FB730E4BFA791A70FB7B0D4A8B
:1049D0000092152019460A4A012300F023FB0346E2
:1049E000BB73BB7B002B03D1054B012283F88020D6
:1049F00000F0F6FABB7B18461037BD4680BD00BFFD
:104A0000B4020020094A000080B584B000AF3A60CB
:104A10000246FA710A46BA717B71184B93F88030DE
:104A200083F00103DBB2002B05D1144B93F88130E6
:104A3000FA799A4200D01EE0BB79002B03D17B7932
:104A4000002B00D117E00D4BD3F88830FB60FB68DA
:104A5000BA791A70BB79002B03D13B681A78FB68CE
:104A60005A70064BD3F88430FA7910469847034BB6
:104A7000002283F880201037BD4680BDB40200209C
:104A800080B586B002AF03463960FB7100F0A2FA30
:104A9000174B93F88030002B03D000F0A1FA0123CC
:104AA00021E0134B162283F88120114B3A68C3F89A
:104AB00088200023FB730E4BFA791A70FB7B0D4A9A
:104AC0000092162019460A4A012300F0ABFA034669
:104AD000BB73BB7B002B03D1054B012283F88020E5
:104AE00000F07EFABB7B18461037BD4680BD00BF84
:104AF000B4020020F94A000080B584B000AF3A60EB
:104B00000246FA710A46BA717B71114B93F88030F4
:104B100083F00103DBB2002B05D10D4B93F88130FC
:104B2000FA799A4200D010E0094BD3F88830FB6044
:104B3000FB68BA791A70064BD3F88430FA791046BC
:104B40009847034B002283F880201037BD4680BD74
:104B5000B402002080B586B002AF0B463A60024630
:104B6000FA71BB8000F036FA194B93F88030002BB5
:104B700003D000F035FA012326E0154B172283F805
:104B80008120134B3A68C3F888200023FB73104B35
:104B9000FA791A70BB880F481946FFF74FFCFB7B68
:104BA0000D4A009217201946094A032300F03AFAE9
:104BB0000346BB73BB7B002B03D1054B012283F85B
:104BC000802000F00DFABB7B18461037BD4680BD33
:104BD000B4020020B5020020DD4B000080B584B097
:104BE00000AF3A600246FA710A46BA717B71114B06
:104BF00093F8803083F00103DBB2002B05D10D4B1D
:104C000093F88130FA799A4200D010E0094BD3F83A
:104C10008830FB60FB68BA791A70064BD3F8843091
:104C2000FA7910469847034B002283F8802010370A
:104C3000BD4680BDB402002080B586B002AF3960A9
:104C40000146F971BA80BB7100F0C4F9264B93F8A4
:104C50008030002B03D000F0C3F9012340E0224B49
:104C6000182283F88120204BBA6AC3F888200023D9
:104C7000FB731D4BFA791A701C483968102202F038
:104C80000FFFBB881A481946FFF7D8FB164BBA79B5
:104C9000DA74154B3A7E1A75BB8B16481946FFF726
:104CA000CDFB97F824301448396A1A4602F0F8FE12
:104CB00097F824301733DBB2FA7B104900911820A3
:104CC0001146094A00F0AEF90346BB73BB7B002BCB
:104CD00003D1054B012283F8802000F081F9BB7BD2
:104CE00018461037BD4680BDB4020020B502002032
:104CF000C5020020C9020020CB020020014D0000A7
:104D000080B584B000AF3A600246FA710A46BA71C3
:104D10007B71114B93F8803083F00103DBB2002BE1
:104D200005D10D4B93F88130FA799A4200D010E00A
:104D3000094BD3F88830FB60FB68BA791A70064BD0
:104D4000D3F88430FA7910469847034B002283F851
:104D500080201037BD4680BDB402002080B588B0E9
:104D600000AF3A600246FA710A46BA717B71FB796C
:104D70000D3B192B00F2278101A252F823F000BF4E
:104D8000E94D0000C74F00005D4E0000C74F000016
:104D9000C74F0000C74F0000C74F0000C74F0000BB
:104DA000C74F0000C74F0000C74F0000C74F0000AB
:104DB000A14E0000C74F0000C74F0000C74F0000C2
:104DC000C74F0000C74F0000C74F0000C74F00008B
:104DD000C74F0000C74F0000C74F0000114F000031
:104DE000374F0000694F00007B79162B00D8EBE0AD
:104DF000774B93F894307A799A4200D9E4E0744B77
:104E0000D3F89030FB61FB6918463968FFF74EFB19
:104E1000FB691A1D3B68043310461946082202F04C
:104E20003FFEFB6903F10C023B680C331046194648
:104E3000FFF73CFBFB6903F110023B68103310469F
:104E40001946052202F02CFEFB6903F116023B68AD
:104E5000153310461946FFF707FBACE07B79082BAA
:104E600000D8B1E05A4B93F894307A799A4200D93D
:104E7000AAE0574BD3F89030BB61BB69184639683C
:104E8000FFF714FB3B681A79BB691A71BB6903F120
:104E900008023B68053310461946FFF707FB8AE016
:104EA0007B79122B00D88FE0494B93F894307A79B4
:104EB0009A4200D988E0464BD3F890307B613B683A
:104EC0001A787B691A707B695A1C3B68013310465B
:104ED0001946102202F0E4FD7B6903F112023B68DF
:104EE000113310461946FFF7BFFA7B79133BDAB24C
:104EF0007B691A757B6903F115013B6803F11302A5
:104F00007B79133B084611461A4602F0C9FD52E070
:104F10002F4B93F894307A799A4200D954E02C4B75
:104F2000D3F890303B613A697B79104639681A466C
:104F300002F0B6FD3FE07B79022B00D844E0244B21
:104F400093F894307A799A4200D93DE0204BD3F817
:104F50009030FB60FB6818463968FFF785FA3B68BC
:104F60009A78FB689A7026E07B79052B00D82BE0B5
:104F7000174B93F894307A799A4200D924E0144B75
:104F8000D3F89030BB60BB6818463968FFF76CFAFD
:104F9000BB689A1C3B68023310461946FFF764FA57
:104FA0003B6804331B78DAB2BB681A713B685A79E4
:104FB000BB685A7100BF064BD3F88C30FA791046A3
:104FC000FF21984700E000BF2037BD4680BD00BFED
:104FD000B402002080B400AFBD465DF8047B70478A
:104FE00080B400AFBD465DF8047B704780B582B0E9
:104FF00000AF7860094800210C2202F05AFD074BEF
:1050000002221A70054B02225A70044B7A689A6089
:105010000348FFF77BFA0837BD4680BD4C030020EC
:10502000ED50000080B584B000AF3A600246FA71DE
:105030000A46BA717B712C4BFA799A702A4BBA697D
:105040005A600023BB73284B1B78022B0FD1264BD1
:1050500000221A70BB7B43F00803BB73224B1B7802
:105060005B00DAB2BB7B1343DBB2BB7307E01E4BC2
:105070001B785B00DAB2BB7B1343DBB2BB73BA7B3A
:10508000BB791343BB73FFF7B5FAFB791846FFF7FB
:10509000BFFA7B791846FFF7BBFABB7B1846FFF7D0
:1050A000B7FA0023FB7309E0FB7B3A6813441B78D3
:1050B0001846FFF7ADFAFB7B0133FB73FA7B7B7974
:1050C0009A42F1D3FFF7CCFA074B1B78002B03D1A0
:1050D000054B01221A7002E0034B00221A700023D4
:1050E00018461037BD4680BD4C03002090B585B0F2
:1050F00000AF78600B46FB70FB78022B00D859E0BC
:105100007B681B78BB737B685B787B737B689B7861
:105110003B733B7B03F00103002B0CBF00230123F7
:10512000DBB2FB723B7B03F00203002B0CBF0023BE
:105130000123DBB2BB723B7B03F00803002B0CBFE7
:1051400000230123DBB27B72FB7A002B09D07B6842
:10515000DA1CB97B7B7B084611461A4600F06AF8D8
:1051600028E07B7A002B04D1144B5B78BA7A9A4200
:1051700005D00023FB73114BBA7A5A7001E001236A
:10518000FB73BB7B184600210022002300F018F8B7
:10519000FB7B002B0ED17B7B002B0BD0074B9B683E
:1051A000002B07D0054B9C687B68DA1CB87B397BE9
:1051B0007B7BA0471437BD4690BD00BF4C03002049
:1051C00080B584B000AF3A600246FA710A46BA71FF
:1051D0007B71FFF70FFAFB791846FFF719FA7B7915
:1051E0001846FFF715FA124B5B785B00DBB243F011
:1051F0000103DBB2DBB21846FFF70AFABB791846A7
:10520000FFF706FA0023FB7309E0FB7B3A681344BF
:105210001B781846FFF7FCF9FB7B0133FB73FA7B25
:105220007B799A42F1D3FFF71BFA1037BD4680BD58
:105230004C03002090B585B000AF3960134602469C
:10524000FA71BB713B681B78FB730D4B9B78FA7945
:105250009A4211D10A4B5B68002B0DD0084B5C6859
:105260003B685A1CF879F97BBB79A047044B0022B4
:105270009A70034B00225A601437BD4690BD00BFA0
:105280004C03002080B483B000AF7860034B7A6891
:105290001A600C37BD465DF8047B70475803002048
:1052A00080B582B000AF0346FB71FB790348194615
:1052B00000F01AFB0837BD4680BD00BF00E000408B
:1052C00080B400AF00BF034B1B69BD465DF8047B93
:1052D000704700BF00E0004080B487B000AFF860C6
:1052E000B9607A60FB6803F10473DA00BB681344A9
:1052F0009B007B617B697A681A601C37BD465DF84C
:10530000047B704780B483B000AF7860034B7A6849
:105310001A630C37BD465DF8047B704700100840E7
:1053200080B582B000AF0346FB71FB79002B05D03E
:105330000E4B1B6803F00303002B05D1FB7983F0B0
:105340000103DBB2002B00D000BFFB79002B05D09E
:10535000064803210022FFF7BFFF04E003480321B2
:105360000122FFF7B9FF0837BD4680BD0010084095
:1053700080B582B000AF0346FB71FB790348002182
:105380001A46FFF7A9FF0837BD4680BD3810084010
:1053900080B485B000AF78607B68002B04D07B6858
:1053A000B3F5004F00D800BF7B68B3FA83F3C3F1B5
:1053B0001F03FB60FB6818461437BD465DF8047B8D
:1053C000704700BF80B483B000AF78600C4B9B6B1C
:1053D00003F00103002B05D1094B1B6803F4405374
:1053E000002B00D106E000BF054BDA6B7B68134051
:1053F000002BF9D10C37BD465DF8047B704700BF28
:105400000010084080B584B000AF78607B689B686E
:10541000002B04D07B689B68802B00D800BF7B6882
:105420001B7883F00103DBB2002B07D17B681B786C
:10543000002B04D07B685B78002B00D000BF7B681A
:105440009B88B3F5405F08D17B689B88B3F5405FCC
:1054500004D17B689B7C002B00D100BF7B689B68DC
:105460001846FFF795FFF8607B681B78002B02D089
:105470000120FFF77DFF0120FFF7A4FF1A4B7A6898
:10548000927C5A607B685B7843F00803DBB21A4673
:105490007B689B789B001A437B685B7C1B011A43EB
:1054A0007B68DB685B011A43FB681B021A437B685D
:1054B0009B881A437B681B7C9B031343BB604FF0A4
:1054C000FF30FFF71FFF084BBA681A607B681B7834
:1054D000002B05D00120FFF723FF0020FFF748FF36
:1054E0001037BD4680BD00BF0010084080B582B0B7
:1054F00000AF786039600220FFF764FF024B3A6822
:10550000DA600837BD4680BD0010084080B500AFA6
:10551000054803210122FFF7DFFE03480321002293
:10552000FFF7DAFE80BD00BF0010084080B483B0F2
:1055300000AF78607B6800229A607B680022DA60A6
:105540007B6810221A607B6800221A617B68332214
:10555000DA61064B9A697B68DA627B6844F24772CB
:105560001A630C37BD465DF8047B7047B081E00FCD
:1055700080B58AB000AF334B03F580531B68BB6125
:10558000304B03F580530C331B68BA691340BB6181
:105590002C4B9B6B7B61BA697B6913403B62002398
:1055A000FB6149E000237B623BE03B6A03F00103BF
:1055B000002B30D0234B9B683B6101227B6A02FAAF
:1055C00003F3FB601F4B03F580530833FA681A603E
:1055D0007B6A1B013A691344DB68BB60BB68002B24
:1055E00019D0BB681B7A7B60BB681B7A83F0010310
:1055F000DAB2BB681A72BB681B68002B0BD0BB68A1
:105600001B68786A7A68002A0CBF00220122D1B296
:10561000BA68526898473B6A5B083B627B6A013311
:105620007B623B6A002BC0D17B69DA43BB691340C4
:105630003B62FB690133FB61FB69012BB2DD28375B
:10564000BD4680BD00200C4080B485B000AF7860BE
:105650007B68FB60FB6893FAA3F3BB60BB68B3FA9B
:1056600083F318461437BD465DF8047B704700BFCE
:1056700080B487B000AFF860B9607A60FB6803F16E
:105680000473DA00BB6813449B007B617B697A6812
:105690001A601C37BD465DF8047B704780B584B046
:1056A00000AF02460B46FA71BB71FB791846FFF753
:1056B000CBFFF860BB79002B0CBF00230123DBB2CA
:1056C0000348F9681A46FFF7D3FF1037BD4680BD7F
:1056D00000A00C4080B586B000AFF860B9607A6079
:1056E000FB70BB68002B03D12448FBF705FBB860B7
:1056F000FB78202B0CD0202B02DC002B05D03AE0CD
:10570000402B08D0602B09D035E010237B6108E0E6
:1057100008237B6105E006237B6102E004237B61B3
:1057200000BFBB689A007B69796801FB03F35B08E3
:1057300013443B617B697A6802FB03F33A69B2FB6D
:10574000F3F33B613B69043B3B613B699B013B617C
:105750003A690B4B13403B61FB681B6823F0600206
:10576000FB681A60FB681A68FB781A43FB681A60CA
:10577000FB683A695A611837BD4680BD4081040014
:10578000C0FF1F0080B582B000AF786039607A68D2
:10579000244B9A420FD07A68234B9A420BD07A68F6
:1057A000224B9A4207D07A68214B9A4203D07A68FA
:1057B000204B9A4200D100BF786800F03DF83B686A
:1057C0009B7C002B05D07B681B6843F080427B6884
:1057D0001A603B68DB7C002B07D03B681B7D43F0E5
:1057E0001003DBB21A467B689A653B685B7B1A46FE
:1057F0003B681B8A1A433B68DB891A437B685A6003
:105800003B6859683B689A683B681B7B7868FFF780
:1058100061FF3B681B781A467B68DA600837BD4633
:1058200080BD00BF00C0004000C4004000C8004070
:1058300000E0004000E4004080B483B000AF786036
:105840007A68244B9A420FD07A68234B9A420BD045
:105850007A68224B9A4207D07A68214B9A4203D049
:105860007A68204B9A4200D100BF7B6840F6AA625A
:10587000DA607B6800221A607B6841F205025A6098
:105880007B6800229A607B6800225A617B68002254
:10589000DA647B6841F6F9729A647B6800225A6583
:1058A0007A680C4B9A4202D17B6800221A657B68A9
:1058B00000229A657A68084B9A4203D07A68074BAF
:1058C0009A4202D17B680022DA650C37BD465DF84A
:1058D000047B704700C0004000C4004000C8004086
:1058E00000E0004000E4004080B483B000AF786086
:1058F0000B46FB7000BF7B681B6903F04003002B65
:10590000F9D0FA787B685A630C37BD465DF8047BA2
:10591000704700BF80B483B000AF78607B681B68BD
:1059200003F00103002B00D110E07B689B6803F0BB
:105930000203002B00D009E000BF7B689B6803F0E6
:105940000103002BF9D17B6801225A600C37BD4658
:105950005DF8047B704700BF80B485B000AF78600D
:1059600039603B681B78002B02D00123FB6001E00B
:105970000023FB603B685B78002B03D0FB6843F09F
:105980000203FB603B689B78002B03D0FB6843F06D
:105990000403FB603B68DB78002B03D0FB6843F01B
:1059A0000803FB603B681B79002B03D0FB6843F0C6
:1059B0002003FB603B685B79002B03D0FB6843F05E
:1059C0004003FB603B689B79002B03D0FB6843F0EE
:1059D0001003FB603B68DB791A033B681B7A1B02F0
:1059E0001343FA681343FB6000BF7B689B6803F0B6
:1059F0000103002BF9D17B68FA681A601437BD46A1
:105A00005DF8047B704700BF80B483B000AF78605E
:105A1000FEE700BF2DE9F04F8BB01D46804689465A
:105A2000144600F075F9DFF8ACA206469AF900308A
:105A30000F46013304D02046294600F08FFF20B9DD
:105A4000304639460BB0BDE8F08F4046494600F07D
:105A500085FF834600282CD12046294600220023BA
:105A600001F0E4FC0028EBD0944B9AF90010944E1E
:105A700000220120CDE906234B1CCDF820B0CDE952
:105A80000289CDE904458DE841000DD002290BD0F3
:105A9000684600F08BFF002800F09580089B1BB142
:105AA00001F0BEFF089B0360DDE906010BB0BDE815
:105AB000F08F002200234046494601F0B7FCF8B1C0
:105AC000204629460022002301F0B0FC834600282E
:105AD0004DD07B489AF90030CDE9044501210022E0
